:100000007EC100000C94EA300C941B310C944C31EE
:100010000C947D310C94AE310C94DF310C94103281
:100020000C9441329DC100009BC1000099C10000A9
:1000300097C100000C94073A93C1000091C10000E1
:100040008FC100008DC100008BC1000089C100007C
:1000500087C1000085C1000083C100000C9472328A
:100060007FC100000C9446360C947C3679C10000A8
:1000700077C1000075C1000073C1000071C10000AC
:100080006FC100006DC100006BC1000069C10000BC
:100090000C94E8360C941E3763C1000061C1000067
:1000A0005FC100005DC100005BC1000059C10000DC
:1000B00057C1000055C1000053C1000051C10000EC
:1000C0004FC100004DC100000C946A3A0C948A376D
:1000D0000C94C03745C100000C942C380C94623845
:1000E0003FC100007A21162379237B237122A222AB
:1000F0003B215B211F215823472354237B237B2350
:100100007B230A21AF33B433B933C333CD33463401
:10011000D733DF33E733F133FB33053414341E3484
:100120004634283432343C3468346B345A345E34C8
:100130006434A2346F34733479347D348134873439
:100140008B348F34A234953499349D3405A84CCD2A
:10015000B2D44EB93836A9020C50B9918688083C01
:10016000A6AAAA2ABE000000803F07634236B79BBA
:10017000D8A71A39685618AEBAAB558C1D3CB7CC07
:100180005763BD6DEDFD753EF6177231BF0000007F
:10019000803F08000000BE922449123EABAAAA2A62
:1001A000BECDCCCC4C3E00000080BEABAAAAAA3E7D
:1001B00000000000BF000000803F000000000008B9
:1001C0004178D3BB4387D1133D190E3CC3BD428256
:1001D000AD2B3E68EC8276BED98FE1A93E4C80EF14
:1001E000FFBE01C4FF7F3F000000000000000A0BBB
:1001F00002090C0D0E0807030401000000000000B6
:1002000000000000000000000000000000000000EE
:1002100000000000000000001211100000000000AB
:1002200000000000000000000000000000000000CE
:1002300000000102102020080810204010204080FB
:10024000020102010804020101020408102040809A
:100250008040201008040201800402018040201028
:100260000804020108040201010204081020408071
:10027000010204081020408005050505070508084F
:100280000808020202020A0A080804040404010120
:100290000101010101010303030303030303040735
:1002A00007070C0C0C0C0C0C0C0C020202020606CC
:1002B0000606060606060B0B0B0B0B0B0B0B0000C2
:1002C0002200250028002B002E00310034000201FE
:1002D0000000050108010B01000021002400270097
:1002E0002A002D0030003300010100000401070145
:1002F0000A010200A5364737E9378B380539112442
:100300001FBECFEFD1E2DEBFCDBF00E00CBF15E0D6
:10031000A0E0B2E0E6EDF2E900E00BBF02C007901A
:100320000D92A235B107D9F72AE0A2E5B5E001C0E8
:100330001D92A831B207E1F712E0CEEFD2E000E063
:1003400006C022970109FE010BBF0E940B48C43F63
:10035000D10780E00807A9F70E9497420C946949E9
:100360004FCE4F925F926F927F928F929F92AF92F9
:10037000BF92CF92DF92EF92FF926B017C01490115
:100380005A010E948A1E811118C0C501B4010E9441
:100390008A1E811112C0C501B4010E945F1E88230C
:1003A000D1F1E894F7F820E030E040E85FE3C701DE
:1003B000B6010E948F43811109C0C090080AD090F5
:1003C000090AE0900A0AF0900B0AB8C020E030E079
:1003D00040E85FE3C701B6010E94B64520E030E087
:1003E000A901181684F4C501B4010E94B645181677
:1003F0000CF09AC0C090040AD090050AE090060A5A
:10040000F090070A9BC0C501B4010E94B6451816BA
:100410000CF48AC0EFCF24013501E89477F820E08E
:1004200030E0A901C301B2010E948F43882309F47F
:100430007FC020E030E040E85FE3C301B2010E94EA
:100440008F43811113C020E030E0A901C501B40140
:100450000E94B64518160CF471C0A701960160E021
:1004600070E080E89FE30E94964310C020E030E0F7
:1004700040E050E4C501B4010E948F43811109C0DE
:10048000A7019601C701B6010E94BA456B017C0124
:1004900055C020E030E040E05FE3C501B4010E94B8
:1004A0008F43811119C020E030E0A901C701B601D6
:1004B0000E94B64587FD10C0C701B601FF90EF90BE
:1004C000DF90CF90BF90AF909F908F907F906F9074
:1004D0005F904F900C94734620E030E0A901C70173
:1004E000B6010E948F4387FF0DC0C501B4010E9471
:1004F00067449B01AC01C501B4010E94B6451816C2
:100500000CF45BCFA5019401C701B601FF90EF90F9
:10051000DF90CF90BF90AF909F908F907F906F9023
:100520005F904F900C941D46C12CD12C760106C0D3
:10053000C12CD12C80E8E82E8FE3F82EC701B6013C
:10054000FF90EF90DF90CF90BF90AF909F908F90F3
:100550007F906F905F904F9008954F925F926F924F
:100560007F928F929F92AF92BF92CF92DF92EF9243
:10057000FF920F931F93CF93DF93CDB7DEB7A8976A
:100580000FB6F894DEBF0FBECDBFC0905A03D09017
:100590005B03E0905C03F0905D0380911E039091FB
:1005A0001F03A0912003B09121038093FE08909334
:1005B000FF08A0930009B093010980912203909154
:1005C0002303A0912403B091250380930209909303
:1005D0000309A0930409B093050980912603909123
:1005E0002703A0912803B0912903809306099093D3
:1005F0000709A0930809B093090980912A039091F3
:100600002B03A0912C03B0912D0380930A099093A2
:100610000B09A0930C09B0930D0980912E039091C2
:100620002F03A0913003B091310380930E09909372
:100630000F09A0931009B093110980913203909192
:100640003303A0913403B091350380931209909342
:100650001309A0931409B093150980913603909162
:100660003703A0913803B091390380931609909312
:100670001709A0931809B093190980913A03909132
:100680003B03A0913C03B0913D0380931A099093E2
:100690001B09A0931C09B0931D0980913E03909102
:1006A0003F03A0914003B091410380931E099093B2
:1006B0001F09A0932009B0932109809142039091D2
:1006C0004303A0914403B091450380932209909382
:1006D0002309A0932409B0932509809146039091A2
:1006E0004703A0914803B091490380932609909352
:1006F0002709A0932809B0932909E091F209F09104
:10070000F3092081318142815381609152037091BC
:10071000530380915403909155030E94BA45209150
:1007200056033091570340915803509159030E944A
:100730002B430E94694620914A0330914B0340911C
:100740004C0350914D030E94BA4520914E033091C5
:100750004F0340915003509151030E942B436093EB
:100760002A0970932B0980932C0990932D0906EE8A
:1007700018E020E030E0A901C701B6010E948F43D4
:10078000F80118162CF0808D918DA28DB38D04C0C8
:1007900080A991A9A2A9B3A980839183A283B383DD
:1007A0000C5F1F4FF8E00E3F1F0719F722E93AE0F0
:1007B00046E85FE36091EE087091EF088091F008E1
:1007C0009091F1080E942B436B017C010E9493439E
:1007D0006D837E838F8398878090EA089090EB08E2
:1007E000A090EC08B090ED08C501B4010E949343BD
:1007F0009B01AC01C701B6012DA33EA34FA358A78F
:100800000E9469466B017C014090E6085090E70821
:100810006090E8087090E908C301B2010E9469463F
:1008200069877A878B879C87C501B4010E946946D6
:100830006D877E878F87988B80915E0390915F0391
:10084000A0916003B091610389839A83AB83BC83D9
:1008500080906A0390906B03A0906C03B0906D033E
:10086000C501B4010E949343698B7A8B8B8B9C8B5F
:10087000C301B2010E9493436D8B7E8B8F8B988F47
:10088000C501B4010E946946698F7A8F8B8F9C8F56
:10089000609166037091670380916803909169038A
:1008A0000E9493434B015C012DA13EA14FA158A58D
:1008B0006D817E818F8198850E94BA452B013C0114
:1008C00029853A854B855C85C701B6010E94BA45EA
:1008D0002D853E854F8558890E94BA459B01AC0104
:1008E000C301B2010E942A4329813A814B815C8174
:1008F0000E94BA4529893A894B895C890E94BA4588
:100900002B013C012D893E894F89588DC701B601C5
:100910000E94BA4529813A814B815C810E94BA4587
:10092000298D3A8D4B8D5C8D0E94BA459B01AC019F
:10093000C301B2010E942B436B017C012091620331
:10094000309163034091640350916503C501B40184
:100950000E94BA459B01AC01C701B6010E942A431F
:100960002091F2083091F3084091F4085091F50875
:100970000E942B4320E030E040E050E4F2DC6D8345
:100980007E838F83988722E93AE046E85FE36091AF
:10099000EE087091EF088091F0089091F1080E94A4
:1009A0002B432B013C010E94934369837A838B8301
:1009B0009C838090E6089090E708A090E808B090AB
:1009C000E908C501B4010E9469469B01AC01C090D1
:1009D000EA08D090EB08E090EC08F090ED08C70131
:1009E000B6012DA33EA34FA358A70E94694669876D
:1009F0007A878B879C87C301B2010E9469466D8705
:100A00007E878F87988BC701B6010E949343698BBD
:100A10007A8B8B8B9C8B40905E0350905F03609031
:100A2000600370906103C0906A03D0906B03E09004
:100A30006C03F0906D03C701B6010E9493436D8B68
:100A40007E8B8F8B988FC501B4010E949343698F71
:100A50007A8F8B8F9C8FC701B6010E9469466D8F7C
:100A60007E8F8F8F98A3609166037091670380914A
:100A70006803909169030E9469466B017C012DA176
:100A80003EA14FA158A569817A818B819C810E94EA
:100A9000BA4529853A854B855C850E94BA454B014C
:100AA0005C0129893A894B895C896D857E858F85B2
:100AB00098890E94BA459B01AC01C501B4010E940E
:100AC0002B43A30192010E94BA452D893E894F898B
:100AD000588D0E94BA454B015C01298D3A8D4B8D92
:100AE0005C8D69817A818B819C810E94BA45A301CA
:100AF00092010E94BA452D8D3E8D4F8D58A10E94C6
:100B0000BA459B01AC01C501B4010E942A434B01C7
:100B10005C01209162033091630340916403509122
:100B20006503C701B6010E94BA459B01AC01C5012E
:100B3000B4010E942A432091F6083091F7084091B1
:100B4000F8085091F9080E942B4320E030E040E083
:100B500050E407DC9B01AC016D817E818F8198851B
:100B60000E942B436D877E878F87988B4090E60885
:100B70005090E7086090E8087090E908C301B2015E
:100B80000E94934369837A838B839C836091EA08F4
:100B90007091EB088091EC089091ED080E946946F5
:100BA0009B01AC01C0905E03D0905F03E0906003B6
:100BB000F090610380906A0390906B03A0906C03A7
:100BC000B0906D03C501B4012DA33EA34FA358A758
:100BD0000E9493436D837E838F839887C301B20104
:100BE0000E9469462B013C01C501B4010E9469467F
:100BF00069877A878B879C8769817A818B819C81C1
:100C000090582DA13EA14FA158A50E94BA45A70119
:100C100096010E94BA452D813E814F8158850E94E0
:100C2000BA454B015C01A7019601C301B2010E94C4
:100C3000BA4529853A854B855C850E94BA459B015A
:100C4000AC01C501B4010E942A4320916E0330918A
:100C50006F0340917003509171030E942B432091C8
:100C6000FA083091FB084091FC085091FD080E9461
:100C70002B4320E030E040E050E473DB9B01AC010B
:100C80006D857E858F8598890E942B436B017C0141
:100C900020E030E0A9010E948F4387FF11C0C70107
:100CA000B60190580E947346DC01CB01B058809386
:100CB0002E0990932F09A0933009B09331090CC0ED
:100CC000C701B6010E94734660932E0970932F09E5
:100CD0008093300990933109809116040E94663305
:100CE000A0912E04B0912F04C0907203D090730392
:100CF000E0907403F09075039C010E94FC470E94F1
:100D00002A4420E030E040E053E30E94BA454B0122
:100D10005C01A70196016091760370917703809141
:100D20007803909179030E942A439B01AC01C5018D
:100D3000B4010E94BA45A70196010E942B439B0172
:100D4000AC01609332097093330980933409909316
:100D5000350960912E0970912F0980913009909189
:100D600031090E942A4320917A0330917B034091FC
:100D70007C0350917D030E94BA456B017C01609316
:100D80003609709337098093380990933909A090F8
:100D90007E03B0907F030091800310918103950141
:100DA000A8010E94B645181684F0A0908203B09066
:100DB000830300918403109185039501A801C70165
:100DC000B6010E948F4387FF02C06501780120E0D1
:100DD00030E0A901C701B6010E948F4387FD17C00B
:100DE00020E030E0A901C701B6010E94B6451816FF
:100DF0009CF020E030E0A901C701B6010E948F43BA
:100E000081110FC0B0E0A0E0F0E0E0E00EC0B0E083
:100E1000A0E0F0E8EFEB09C0B0E0A0E0F0E8EFE31D
:100E200004C0BC2DAD2DFE2DEF2D20911A03309165
:100E30001B0340911C0350911D036B2F7A2F8F2FA2
:100E40009E2F0E942B43209186033091870340916F
:100E50008803509189030E9496434B015C01609383
:100E60003A0970933B0980933C0990933D0920E037
:100E700030E040E853E40E948F4387FF0EC020E03B
:100E800030E0A901C501B4010E94B64587FD07C045
:100E9000C501B4010E94FE4303C06FEF01C060E0D2
:100EA0008091EA020E94DC348091D2029091D302B8
:100EB000A091D402B091D50289839A83AB83BC837D
:100EC0008090A2029090A302A090A402B090A502EC
:100ED0009C01AD016091BA027091BB028091BC028D
:100EE0009091BD020E942A432B013C01A50194016F
:100EF00060918A0270918B0280918C0290918D0298
:100F00000E942A439B01AC01C301B2010E94964397
:100F10002B013C01C701B6019F77A50194010E94F6
:100F20002A439B01AC01C301B2010E94BA45298149
:100F30003A814B815C810E942B430E9467446B0184
:100F40007C010E948A1E811126C0C701B6010E9441
:100F50005F1E811120C020E030E040E85FE4C7015F
:100F6000B6010E9481446B017C015B01870120E096
:100F700030E0A9010E948F4387FF11C0C701B6016D
:100F800090580E94FE4390958095709561957F4F93
:100F90008F4F9F4F08C0A12CB12C00E010E0B5018D
:100FA000C8010E94FE4360934A0970934B098093E5
:100FB0004C0990934D0997FD0BC06F3F710581055A
:100FC000910549F040F06FEF70E080E090E003C0E1
:100FD00060E070E0CB018091EE020E948B3322E949
:100FE0003AE046E85FE36091EE087091EF08809187
:100FF000F0089091F1080E942B436B017C010E9444
:1010000093436D837E838F8398878090EA089090C6
:10101000EB08A090EC08B090ED08C501B4010E9467
:10102000934369877A878B879C87C701B6010E94A3
:1010300069466B017C014090E6085090E70860909B
:10104000E8087090E908C301B2010E9469466D8703
:101050007E878F87988BC501B4010E946946698B92
:101060007A8B8B8B9C8B80915E0390915F03A09118
:101070006003B091610389839A83AB83BC838090C2
:101080006A0390906B03A0906C03B0906D03C50150
:10109000B4010E9493436D8B7E8B8F8B988FC3011D
:1010A000B2010E949343698F7A8F8B8F9C8FC50109
:1010B000B4010E9469466D8F7E8F8F8F98A322E9BD
:1010C0003AE046E85FE360916603709167038091C0
:1010D0006803909169030E942B430E9493434B0144
:1010E0005C0129853A854B855C856D817E818F8188
:1010F00098850E94BA452B013C012D853E854F8580
:101100005889C701B6010E94BA4529893A894B8995
:101110005C890E94BA459B01AC01C301B2010E94E7
:101120002A4329813A814B815C810E94BA452D89ED
:101130003E894F89588D0E94BA452B013C01298D6B
:101140003A8D4B8D5C8DC701B6010E94BA4529814D
:101150003A814B815C810E94BA452D8D3E8D4F8D29
:1011600058A10E94BA459B01AC01C301B2010E9483
:101170002A436B017C01209162033091630340910B
:10118000640350916503C501B4010E94BA459B01F7
:10119000AC01C701B6010E942B432091F2083091A7
:1011A000F3084091F4085091F5080E942B4320E089
:1011B00030E040E050E4D5D86D837E838F839887FC
:1011C00022E93AE046E85FE36091EE087091EF08AB
:1011D0008091F0089091F1080E942B432B013C0173
:1011E0000E94934369837A838B839C838090E60873
:1011F0009090E708A090E808B090E908C501B40114
:101200000E94694669877A878B879C87C090EA0825
:10121000D090EB08E090EC08F090ED08C701B60123
:101220000E9469466D877E878F87988BC301B201C4
:101230000E946946698B7A8B8B8B9C8BC701B601A8
:101240000E9493436D8B7E8B8F8B988F40905E03B3
:1012500050905F036090600370906103C0906A03D8
:10126000D0906B03E0906C03F0906D03C701B60162
:101270000E949343698F7A8F8B8F9C8FC501B40135
:101280000E9493436D8F7E8F8F8F98A3C701B60105
:101290000E94694669A37AA38BA39CA322E93AE042
:1012A00046E85FE36091660370916703809168038D
:1012B000909169030E942B430E9469466B017C0157
:1012C00029853A854B855C8569817A818B819C81F2
:1012D0000E94BA452D853E854F8558890E94BA45A2
:1012E0004B015C012D893E894F89588D69897A8926
:1012F0008B899C890E94BA459B01AC01C501B40150
:101300000E942B43A30192010E94BA45298D3A8D78
:101310004B8D5C8D0E94BA454B015C012D8D3E8D3D
:101320004F8D58A169817A818B819C810E94BA4539
:10133000A30192010E94BA4529A13AA14BA15CA147
:101340000E94BA459B01AC01C501B4010E942B4328
:101350004B015C012091620330916303409164036F
:1013600050916503C701B6010E94BA459B01AC01CB
:10137000C501B4010E942A432091F6083091F70874
:101380004091F8085091F9080E942B4320E030E08A
:1013900040E050E40E94B1019B01AC016D817E816F
:1013A0008F8198850E942B436D877E878F87988BCE
:1013B0004090E6085090E7086090E8087090E908CF
:1013C000C301B2010E94934369837A838B839C8318
:1013D0006091EA087091EB088091EC089091ED081B
:1013E0000E9469469B01AC01C0905E03D0905F03F0
:1013F000E0906003F090610380906A0390906B032B
:10140000A0906C03B0906D03C501B4012DA33EA361
:101410004FA358A70E9493436D837E838F83988741
:10142000C301B2010E9469462B013C01C501B40110
:101430000E94694669877A878B879C8769817A8150
:101440008B819C8190582DA13EA14FA158A50E944F
:10145000BA45A70196010E94BA452D813E814F8170
:1014600058850E94BA454B015C01A7019601C30152
:10147000B2010E94BA4529853A854B855C850E9458
:10148000BA459B01AC01C501B4010E942B432091D8
:101490006E0330916F0340917003509171030E946D
:1014A0002B432091FA083091FB084091FC085091A1
:1014B000FD080E942B4320E030E040E050E40E9411
:1014C000B1019B01AC016D857E858F8598890E9455
:1014D0002B436B017C0180911A040E9466338C01BE
:1014E00020E030E0A901C701B6010E948F4387FFC9
:1014F0000CC0C701B60190580E9473466B017C0175
:10150000F7FAF094F7F8F09406C0C701B6010E940C
:1015100073466B017C01A0913004B091310480903E
:101520008E0390908F03A0909003B0909103980148
:101530000E94FC470E942A4420E030E040E053E350
:101540000E94BA452B013C01A501940160919203D0
:101550007091930380919403909195030E942A4384
:101560009B01AC01C301B2010E94BA45A5019401DF
:101570000E942B439B01AC01C701B6010E942A4384
:1015800020919603309197034091980350919903CD
:101590000E94BA456B017C0180909A0390909B0356
:1015A000A0909C03B0909D03A50194010E94B645B4
:1015B0001816A4F080909E0390909F03A090A00323
:1015C000B090A103A5019401B601C7010E948F4309
:1015D00087FD04C0C601D7014C015D0120E030E069
:1015E000A901C501B4010E948F4387FD17C020E007
:1015F00030E0A901C501B4010E94B64518169CF05F
:1016000020E030E0A901C501B4010E948F4381119F
:101610000FC0B0E0A0E0F0E0E0E00EC0B0E0A0E07D
:10162000F0E8EFEB09C0B0E0A0E0F0E8EFE304C0C1
:10163000B82DA92DFA2DEB2D20918A0330918B0323
:1016400040918C0350918D036B2F7A2F8F2F9E2FFB
:101650000E942B432091A2033091A3034091A40345
:101660005091A5030E9496436B017C0120E030E07D
:1016700040E853E40E948F4387FF0EC020E030E033
:10168000A901C701B6010E94B64587FD07C0C70181
:10169000B6010E94FE4303C06FEF01C060E080917D
:1016A000F2020E94DC34C090D602D090D702E090C3
:1016B000D802F090D9028091A6029091A702A09141
:1016C000A802B091A90289839A83AB83BC83A70146
:1016D00096016091BE027091BF028091C00290910C
:1016E000C1020E942A432B013C0129813A814B818E
:1016F0005C8160918E0270918F0280919002909136
:1017000091020E942A439B01AC01C301B2010E94D5
:1017100096432B013C01C501B4019F7729813A8191
:101720004B815C810E942A439B01AC01C301B20141
:101730000E94BA45A70196010E942B430E9467446C
:101740006B017C010E948A1E811126C0C701B6016F
:101750000E945F1E811120C020E030E040E85FE47D
:10176000C701B6010E9481446B017C015B018701C6
:1017700020E030E0A9010E948F4387FF11C0C7011C
:10178000B60190580E94FE439095809570956195A2
:101790007F4F8F4F9F4F08C0A12CB12C00E010E06D
:1017A000B501C8010E94FE4397FD0BC06F3F710554
:1017B0008105910549F040F06FEF70E080E090E026
:1017C00003C060E070E0CB018091F6020E948B3391
:1017D00022E93AE046E85FE36091EE087091EF0895
:1017E0008091F0089091F1080E942B436B017C01DD
:1017F0000E9493436D837E838F8398874090EA088D
:101800005090EB086090EC087090ED08C301B201B5
:101810000E94934369877A878B879C87C701B601AB
:101820000E9469466B017C018090E6089090E70871
:10183000A090E808B090E908C501B4010E9469468B
:101840006D877E878F87988BC301B2010E9469469E
:10185000698B7A8B8B8B9C8B80915E0390915F035D
:10186000A0916003B091610389839A83AB83BC83A9
:1018700022E93AE046E85FE360916A0370916B0306
:1018800080916C0390916D030E942B432B013C01CE
:101890000E9493436D8B7E8B8F8B988FC501B40113
:1018A0000E949343698F7A8F8B8F9C8FC301B20103
:1018B0000E9469466D8F7E8F8F8F98A322E93AE050
:1018C00046E05FE36091660370916703809168036F
:1018D000909169030E942B430E9469464B015C0171
:1018E00029853A854B855C856D817E818F819885C0
:1018F0000E94BA452B013C012D853E854F855889B4
:10190000C701B6010E94BA4529893A894B895C8989
:101910000E94BA459B01AC01C301B2010E942A4357
:10192000905829813A814B815C810E94BA452D896A
:101930003E894F89588D0E94BA452B013C01298D63
:101940003A8D4B8D5C8DC701B6010E94BA45298145
:101950003A814B815C810E94BA452D8D3E8D4F8D21
:1019600058A10E94BA459B01AC01C301B2010E947B
:101970002A436B017C012091620330916303409103
:10198000640350916503C501B4010E94BA459B01EF
:10199000AC01C701B6010E942B432091F20830919F
:1019A000F3084091F4085091F5080E942B4320E081
:1019B00030E040E050E40E94B1016D837E838F836C
:1019C000988722E93AE046E85FE36091EE0870917B
:1019D000EF088091F0089091F1080E942B432B01B1
:1019E0003C010E94934369837A838B839C83C090DC
:1019F000E608D090E708E090E808F090E908C70111
:101A0000B6010E94694669877A878B879C87809098
:101A1000EA089090EB08A090EC08B090ED08C501A2
:101A2000B4010E9469466D877E878F87988BC301BA
:101A3000B2010E946946698B7A8B8B8B9C8BC501A6
:101A4000B4010E9493436D8B7E8B8F8B988F409057
:101A50005E0350905F03609060037090610322E921
:101A60003AE046E85FE360916A0370916B0380910E
:101A70006C0390916D030E942B434B015C010E940B
:101A80009343698F7A8F8B8F9C8FC701B6010E9419
:101A900093436D8F7E8F8F8F98A3C501B4010E94F1
:101AA000694669A37AA38BA39CA322E93AE046E0A6
:101AB0005FE3609166037091670380916803909182
:101AC00069030E942B430E9493436B017C0129858B
:101AD0003A854B855C8569817A818B819C810E94E6
:101AE000BA452D853E854F8558890E94BA454B01E0
:101AF0005C012D893E894F89588D69897A898B8946
:101B00009C890E94BA459B01AC01C501B4010E94A9
:101B10002B439058A30192010E94BA45298D3A8D1A
:101B20004B8D5C8D0E94BA454B015C012D8D3E8D25
:101B30004F8D58A169817A818B819C810E94BA4521
:101B4000A30192010E94BA4529A13AA14BA15CA12F
:101B50000E94BA459B01AC01C501B4010E942B4310
:101B60004B015C0120916203309163034091640357
:101B700050916503C701B6010E94BA459B01AC01B3
:101B8000C501B4010E942A432091F6083091F7085C
:101B90004091F8085091F9080E942B4320E030E072
:101BA00040E050E40E94B1019B01AC016D817E8157
:101BB0008F8198850E942B43698B7A8B8B8B9C8BB2
:101BC000C090E608D090E708E090E808F090E908B7
:101BD000C701B6010E94934369837A838B839C83F8
:101BE0006091EA087091EB088091EC089091ED0803
:101BF0000E9469466D837E838F83988780905E0301
:101C000090905F03A0906003B090610322E93AE0F6
:101C100046E85FE360916A0370916B0380916C0307
:101C200090916D030E942B432B013C010E94934332
:101C300069877A878B879C87C701B6010E946946AE
:101C40006B017C01C301B2010E9469466D877E87EA
:101C50008F87988B2D813E814F81588569817A814C
:101C60008B819C810E94BA45A50194010E94BA45CE
:101C700029853A854B855C850E94BA452B013C013C
:101C8000A5019401C701B6010E94BA452D853E8584
:101C90004F8558890E94BA459B01AC01C301B2012E
:101CA0000E942B4320916E0330916F03409170038B
:101CB000509171030E942B432091FA083091FB0848
:101CC0004091FC085091FD080E942B4320E030E039
:101CD00040E050E40E94B1019B01AC0169897A891E
:101CE0008B899C890E942B436B017C0180911E048F
:101CF0000E9466338C0120E030E0A901C701B601E3
:101D00000E948F4387FF0CC0C701B60190580E9404
:101D100073466B017C01F7FAF094F7F8F09406C073
:101D2000C701B6010E9473466B017C01A091320489
:101D3000B09133048090AA039090AB03A090AC03C1
:101D4000B090AD0398010E94FC470E942A4420E015
:101D500030E040E053E30E94BA452B013C01A5016D
:101D600094016091AE037091AF038091B0039091A4
:101D7000B1030E942A439B01AC01C301B2010E943E
:101D8000BA45A50194010E942B439B01AC01C701F8
:101D9000B6010E942A432091B2033091B3034091CF
:101DA000B4035091B5030E94BA456B017C01809049
:101DB000B6039090B703A090B803B090B903A50103
:101DC00094010E94B6451816A4F08090BA03909032
:101DD000BB03A090BC03B090BD03A5019401B60164
:101DE000C7010E948F4387FD04C0C601D7014C0183
:101DF0005D0120E030E0A901C501B4010E948F43DC
:101E000087FD17C020E030E0A901C501B4010E94A0
:101E1000B64518169CF020E030E0A901C501B401D8
:101E20000E948F4381110FC0B0E0A0E0F0E0E0E03D
:101E30000EC0B0E0A0E0F0E8EFEB09C0B0E0A0E039
:101E4000F0E8EFE304C0B82DA92DFA2DEB2D209179
:101E5000A6033091A7034091A8035091A9036B2FCB
:101E60007A2F8F2F9E2F0E942B432091BE033091FB
:101E7000BF034091C0035091C1030E9496436B0180
:101E80007C0120E030E040E853E40E948F4387FF6C
:101E90000EC020E030E0A901C701B6010E94B6459E
:101EA00087FD07C0C701B6010E94FE4303C06FEF64
:101EB00001C060E08091FA020E94DC34C090DA0236
:101EC000D090DB02E090DC02F090DD028091AA026B
:101ED0009091AB02A091AC02B091AD0289839A833C
:101EE000AB83BC83A70196016091C2027091C302CB
:101EF0008091C4029091C5020E942A432B013C01AB
:101F000029813A814B815C816091920270919302A8
:101F100080919402909195020E942A439B01AC010A
:101F2000C301B2010E9496432B013C01C501B401DB
:101F30009F7729813A814B815C810E942A439B01D2
:101F4000AC01C301B2010E94BA45A70196010E94EB
:101F50002B430E9467446B017C010E948A1E811101
:101F600026C0C701B6010E945F1E811120C020E07B
:101F700030E040E85FE4C701B6010E9481446B0194
:101F80007C015B01870120E030E0A9010E948F43C2
:101F900087FF11C0C701B60190580E94FE4390957B
:101FA0008095709561957F4F8F4F9F4F08C0A12CF2
:101FB000B12C00E010E0B501C8010E94FE4397FD7E
:101FC0000BC06F3F71058105910549F040F06FEF3F
:101FD00070E080E090E003C060E070E0CB018091B1
:101FE000FE020E948B3322E93AE046E85FE360910B
:101FF000EE087091EF088091F0089091F1080E942E
:102000002B436B017C010E9493436D837E838F83FE
:1020100098874090EA085090EB086090EC08709028
:10202000ED08C301B2010E94934369877A878B87C9
:102030009C87C701B6010E9469466B017C018090B4
:10204000E6089090E708A090E808B090E908C5017C
:10205000B4010E9469466D877E878F87988BC30184
:10206000B2010E946946698B7A8B8B8B9C8B809125
:102070005E0390915F03A0916003B0916103898337
:102080009A83AB83BC8322E93AE046E05FE3609148
:102090006A0370916B0380916C0390916D030E94B1
:1020A0002B432B013C010E9469466D8B7E8B8F8BED
:1020B000988FC501B4010E949343698F7A8F8B8FEB
:1020C0009C8FC301B2010E9493436D8F7E8F8F8FCF
:1020D00098A322E93AE046E05FE3609166037091DD
:1020E000670380916803909169030E942B430E94CB
:1020F00069464B015C0129853A854B855C856D817C
:102100007E818F8198850E94BA452B013C012D85E7
:102110003E854F855889C701B6010E94BA45298975
:102120003A894B895C890E94BA459B01AC01C30185
:10213000B2010E942A43905829813A814B815C81E7
:102140000E94BA452D893E894F89588D0E94BA4513
:102150002B013C01298D3A8D4B8D5C8DC701B60159
:102160000E94BA4529813A814B815C810E94BA451F
:102170002D8D3E8D4F8D58A10E94BA459B01AC011B
:10218000C301B2010E942A436B017C0120916203CA
:10219000309163034091640350916503C501B4011C
:1021A0000E94BA459B01AC01C701B6010E942B43B6
:1021B0002091F2083091F3084091F4085091F5080D
:1021C0000E942B4320E030E040E050E40E94B10147
:1021D0006D837E838F83988722E93AE046E85FE348
:1021E0006091EE087091EF088091F0089091F108ED
:1021F0000E942B432B013C010E94934369837A8305
:102200008B839C83C090E608D090E708E090E808B4
:10221000F090E908C701B6010E94694669877A878C
:102220008B879C878090EA089090EB08A090EC0840
:10223000B090ED08C501B4010E9469466D877E87A4
:102240008F87988BC301B2010E946946698B7A8B94
:102250008B8B9C8BC501B4010E9493436D8B7E8B4D
:102260008F8B988F40905E0350905F036090600367
:102270007090610322E93AE046E05FE360916A030F
:1022800070916B0380916C0390916D030E942B43BE
:102290004B015C010E946946698F7A8F8B8F9C8FFE
:1022A000C701B6010E9493436D8F7E8F8F8F98A3D5
:1022B000C501B4010E94934369A37AA38BA39CA395
:1022C00022E93AE046E05FE36091660370916703BC
:1022D00080916803909169030E942B430E9493436D
:1022E0006B017C0129853A854B855C8569817A8102
:1022F0008B819C810E94BA452D853E854F855889EA
:102300000E94BA454B015C012D893E894F89588D49
:1023100069897A898B899C890E94BA459B01AC01A5
:10232000C501B4010E942B439058A30192010E9461
:10233000BA45298D3A8D4B8D5C8D0E94BA454B0173
:102340005C012D8D3E8D4F8D58A169817A818B81E5
:102350009C810E94BA45A30192010E94BA4529A11D
:102360003AA14BA15CA10E94BA459B01AC01C501F9
:10237000B4010E942B434B015C0120916203309118
:1023800063034091640350916503C701B6010E9445
:10239000BA459B01AC01C501B4010E942B432091B9
:1023A000F6083091F7084091F8085091F9080E941A
:1023B0002B4320E030E040E050E40E94B1019B015B
:1023C000AC016D817E818F8198850E942B43698B42
:1023D0007A8B8B8B9C8BC090E608D090E708E090BE
:1023E000E808F090E908C701B6010E9493436983A9
:1023F0007A838B839C836091EA087091EB088091CB
:10240000EC089091ED080E9469466D837E838F836E
:10241000988780905E0390905F03A0906003B090D7
:10242000610322E93AE046E05FE360916A0370915C
:102430006B0380916C0390916D030E942B432B01E1
:102440003C010E94694669877A878B879C87C70110
:10245000B6010E9469466B017C01C301B2010E9472
:1024600093436D877E878F87988B2D813E814F8127
:10247000588569817A818B819C810E94BA45A5012A
:1024800094010E94BA4529853A854B855C850E9456
:10249000BA452B013C01A5019401C701B6010E9478
:1024A000BA452D853E854F8558890E94BA459B01C6
:1024B000AC01C301B2010E942B4320916E03309105
:1024C0006F0340917003509171030E942B43209140
:1024D000FA083091FB084091FC085091FD080E94D9
:1024E0002B4320E030E040E050E40E94B1019B012A
:1024F000AC0169897A898B899C890E942B436B0185
:102500007C01809122040E9466338C0120E030E03F
:10251000A901C701B6010E948F4387FF0CC0C70104
:10252000B60190580E9473466B017C01F7FAF09453
:10253000F7F8F09406C0C701B6010E9473466B011C
:102540007C01A0913404B09135048090C603909032
:10255000C703A090C803B090C90398010E94FC472C
:102560000E942A4420E030E040E053E30E94BA4554
:102570002B013C01A50194016091CA037091CB032A
:102580008091CC039091CD030E942A439B01AC0122
:10259000C301B2010E94BA45A50194010E942B43D8
:1025A0009B01AC01C701B6010E942A432091CE03D2
:1025B0003091CF034091D0035091D1030E94BA458E
:1025C0006B017C018090D2039090D303A090D40340
:1025D000B090D503A50194010E94B6451816A4F049
:1025E0008090D6039090D703A090D803B090D903E1
:1025F000A5019401B601C7010E948F4387FD04C065
:10260000C601D7014C015D0120E030E0A901C50100
:10261000B4010E948F4387FD17C020E030E0A9017C
:10262000C501B4010E94B64518169CF020E030E0C8
:10263000A901C501B4010E948F4381110FC0B0E010
:10264000A0E0F0E0E0E00EC0B0E0A0E0F0E8EFEBEA
:1026500009C0B0E0A0E0F0E8EFE304C0B82DA92D78
:10266000FA2DEB2D2091C2033091C3034091C40396
:102670005091C5036B2F7A2F8F2F9E2F0E942B43D3
:102680002091DA033091DB034091DC035091DD03AC
:102690000E9496436B017C0120E030E040E853E467
:1026A0000E948F4387FF0EC020E030E0A901C701E0
:1026B000B6010E94B64587FD07C0C701B6010E945A
:1026C000FE4303C06FEF01C060E0809102030E94EF
:1026D000DC34C090DE02D090DF02E090E002F090A7
:1026E000E1028091AE029091AF02A091B002B09150
:1026F000B10289839A83AB83BC83A7019601609161
:10270000C6027091C7028091C8029091C9020E94CE
:102710002A432B013C0129813A814B815C816091E4
:1027200096027091970280919802909199020E946E
:102730002A439B01AC01C301B2010E9496432B01C5
:102740003C01C501B4019F7729813A814B815C81AD
:102750000E942A439B01AC01C301B2010E94BA4509
:10276000A70196010E942B430E9467446B017C01E4
:102770000E948A1E811126C0C701B6010E945F1EF9
:10278000811120C020E030E040E85FE4C701B601DD
:102790000E9481446B017C015B01870120E030E0F5
:1027A000A9010E948F4387FF11C0C701B60190584D
:1027B0000E94FE4390958095709561957F4F8F4F55
:1027C0009F4F08C0A12CB12C00E010E0B501C8015A
:1027D0000E94FE4397FD0BC06F3F71058105910577
:1027E00049F040F06FEF70E080E090E003C060E0FF
:1027F00070E0CB01809106030E948B3322E93AE01E
:1028000046E85FE36091EE087091EF088091F00870
:102810009091F1080E942B436B017C010E9493432D
:102820006D837E838F8398874090EA085090EB08F1
:102830006090EC087090ED08C301B2010E949343D0
:1028400069877A878B879C87C701B6010E94694692
:102850006B017C018090E6089090E708A090E80862
:10286000B090E908C501B4010E9469466D877E8772
:102870008F87988BC301B2010E946946698B7A8B5E
:102880008B8B9C8B80915E0390915F03A091600382
:10289000B091610389839A83AB83BC8322E93AE0D8
:1028A00046E05FE360916A0370916B0380916C0373
:1028B00090916D030E942B432B013C010E946946BD
:1028C0006D8B7E8B8F8B988FC501B4010E949343D3
:1028D000698F7A8F8B8F9C8FC301B2010E949343C3
:1028E0006D8F7E8F8F8F98A322E93AE046E85FE3F1
:1028F000609166037091670380916803909169030A
:102900000E942B430E9493434B015C0129853A8529
:102910004B855C856D817E818F8198850E94BA454B
:102920002B013C012D853E854F855889C701B60195
:102930000E94BA4529893A894B895C890E94BA4527
:102940009B01AC01C301B2010E942A439058298126
:102950003A814B815C810E94BA452D893E894F891D
:10296000588D0E94BA452B013C01298D3A8D4B8D23
:102970005C8DC701B6010E94BA4529813A814B811D
:102980005C810E94BA452D8D3E8D4F8D58A10E94CD
:10299000BA459B01AC01C301B2010E942B436B01FC
:1029A0007C01209162033091630340916403509154
:1029B0006503C501B4010E94BA459B01AC01C70182
:1029C000B6010E942B432091F2083091F308409108
:1029D000F4085091F5080E942B4320E030E040E0DD
:1029E00050E40E94B1016D837E838F83988722E932
:1029F0003AE046E85FE36091EE087091EF0880915D
:102A0000F0089091F1080E942B432B013C010E9499
:102A1000934369837A838B839C83C090E608D0902C
:102A2000E708E090E808F090E908C701B6010E94C5
:102A3000694669877A878B879C878090EA0890909F
:102A4000EB08A090EC08B090ED08C501B4010E941D
:102A500069466D877E878F87988BC301B2010E947C
:102A60006946698B7A8B8B8B9C8BC501B4010E9464
:102A700093436D8B7E8B8F8B988F40905E0350902D
:102A80005F03609060037090610322E93AE046E0E2
:102A90005FE360916A0370916B0380916C03909186
:102AA0006D030E942B434B015C010E946946698FB4
:102AB0007A8F8B8F9C8FC701B6010E9493436D8FD5
:102AC0007E8F8F8F98A3C501B4010E94934369A3A1
:102AD0007AA38BA39CA322E93AE046E85FE36091E6
:102AE00066037091670380916803909169030E9467
:102AF0002B430E9469466B017C0129853A854B85F1
:102B00005C8569817A818B819C810E94BA452D8583
:102B10003E854F8558890E94BA454B015C012D893D
:102B20003E894F89588D69897A898B899C890E9451
:102B3000BA459B01AC01C501B4010E942B439058DA
:102B4000A30192010E94BA45298D3A8D4B8D5C8D6F
:102B50000E94BA454B015C012D8D3E8D4F8D58A1D1
:102B600069817A818B819C810E94BA45A30192017F
:102B70000E94BA4529A13AA14BA15CA10E94BA4585
:102B80009B01AC01C501B4010E942A434B015C01C9
:102B90002091620330916303409164035091650377
:102BA000C701B6010E94BA459B01AC01C501B40141
:102BB0000E942B432091F6083091F7084091F808C5
:102BC0005091F9080E942B4320E030E040E050E4AF
:102BD0000E94B1019B01AC016D817E818F8198853E
:102BE0000E942B43698B7A8B8B8B9C8BC090E60861
:102BF000D090E708E090E808F090E908C701B60136
:102C00000E94934369837A838B839C836091EA0853
:102C10007091EB088091EC089091ED080E94694654
:102C20006D837E838F83988780905E0390905F038F
:102C3000A0906003B090610322E93AE046E05FE3D0
:102C400060916A0370916B0380916C0390916D03A6
:102C50000E942B432B013C010E94694669877A87B9
:102C60008B879C87C701B6010E9469466B017C0176
:102C7000C301B2010E9493436D877E878F87988B33
:102C80002D813E814F81588569817A818B819C811C
:102C90000E94BA45A50194010E94BA4529853A854A
:102CA0004B855C850E94BA452B013C01A50194012E
:102CB000C701B6010E94BA452D853E854F855889CA
:102CC0000E94BA459B01AC01C301B2010E942A4394
:102CD00020916E0330916F03409170035091710306
:102CE0000E942B432091FA083091FB084091FC0888
:102CF0005091FD080E942B4320E030E040E050E47A
:102D00000E94B1019B01AC0169897A898B899C89F8
:102D10000E942B436B017C01809126040E94663344
:102D20008C0120E030E0A901C701B6010E948F4369
:102D300087FF0CC0C701B60190580E9473466B0113
:102D40007C01F7FAF094F7F8F09406C0C701B601D9
:102D50000E9473466B017C01A0913604B091370448
:102D60008090E2039090E303A090E403B090E50329
:102D700098010E94FC470E942A4420E030E040E095
:102D800053E30E94BA452B013C01A50194016091D7
:102D9000E6037091E7038091E8039091E9030E94B4
:102DA0002A439B01AC01C301B2010E94BA45A501AF
:102DB00094010E942B439B01AC01C701B6010E9404
:102DC0002A432091EA033091EB034091EC035091A8
:102DD000ED030E94BA456B017C018090EE03909058
:102DE000EF03A090F003B090F103A50194010E94BD
:102DF000B6451816A4F08090F2039090F303A090CB
:102E0000F403B090F503A5019401B601C7010E9437
:102E10008F4387FD04C0C601D7014C015D0120E04E
:102E200030E0A901C501B4010E948F4387FD17C09E
:102E300020E030E0A901C501B4010E94B645181692
:102E40009CF020E030E0A901C501B4010E948F434D
:102E500081110FC0B0E0A0E0F0E0E0E00EC0B0E013
:102E6000A0E0F0E8EFEB09C0B0E0A0E0F0E8EFE3AD
:102E700004C0B82DA92DFA2DEB2D2091DE03309141
:102E8000DF034091E0035091E1036B2F7A2F8F2FE6
:102E90009E2F0E942B432091F6033091F70340911F
:102EA000F8035091F9030E9496436B017C0120E0E6
:102EB00030E040E853E40E948F4387FF0EC020E0DB
:102EC00030E0A901C701B6010E94B64587FD07C0E1
:102ED000C701B6010E94FE4303C06FEF01C060E06E
:102EE00080910A030E94DC34C090E202D090E30299
:102EF000E090E402F090E5028091B2029091B3027A
:102F0000A091B402B091B50289839A83AB83BC834C
:102F1000A70196016091CA027091CB028091CC0208
:102F20009091CD020E942A432B013C0129813A81D4
:102F30004B815C8160919A0270919B0280919C020E
:102F400090919D020E942A439B01AC01C301B201F2
:102F50000E9496432B013C01C501B4019F77298152
:102F60003A814B815C810E942A439B01AC01C301E1
:102F7000B2010E94BA45A70196010E942B430E940C
:102F800067446B017C01C6D6811125C0C701B6011B
:102F900096D6811120C020E030E040E85FE4C70110
:102FA000B6010E9481446B017C015B01870120E036
:102FB00030E0A9010E948F4387FF11C0C701B6010D
:102FC00090580E94FE4390958095709561957F4F33
:102FD0008F4F9F4F08C0A12CB12C00E010E0B5012D
:102FE000C8010E94FE4397FD0BC06F3F710581052C
:102FF000910549F040F06FEF70E080E090E003C091
:1030000060E070E0CB0180910E030E948B3322E9D7
:103010003AE046E85FE36091EE087091EF08809136
:10302000F0089091F1080E942B436B017C010E94F3
:1030300093436D837E838F8398874090EA085090F6
:10304000EB086090EC087090ED08C301B2010E949B
:10305000934369877A878B879C87C701B6010E9453
:1030600069466B017C018090E6089090E708A0908B
:10307000E808B090E908C501B4010E9469466D876F
:103080007E878F87988BC301B2010E946946698B46
:103090007A8B8B8B9C8B80915E0390915F03A091C8
:1030A0006003B091610389839A83AB83BC8322E977
:1030B0003AE046E85FE360916A0370916B038091A8
:1030C0006C0390916D030E942B432B013C010E94E5
:1030D00093436D8B7E8B8F8B988FC501B4010E94BB
:1030E0009343698F7A8F8B8F9C8FC301B2010E94AB
:1030F00069466D8F7E8F8F8F98A360916603709164
:10310000670380916803909169030E9493434B0188
:103110005C0129853A854B855C856D817E818F8137
:1031200098850E94BA452B013C012D853E854F852F
:103130005889C701B6010E94BA4529893A894B8945
:103140005C890E94BA459B01AC01C301B2010E9497
:103150002A43905829813A814B815C810E94BA456B
:103160002D893E894F89588D0E94BA452B013C011B
:10317000298D3A8D4B8D5C8DC701B6010E94BA45F1
:1031800029813A814B815C810E94BA452D8D3E8D0B
:103190004F8D58A10E94BA459B01AC01C301B201F9
:1031A0000E942B436B017C012091620330916303E9
:1031B0004091640350916503C501B4010E94BA4572
:1031C0009B01AC01C701B6010E942A432091F2087D
:1031D0003091F3084091F4085091F5080E942B4378
:1031E00020E030E040E050E40E94B1016D837E8336
:1031F0008F83988722E93AE046E85FE36091EE0822
:103200007091EF088091F0089091F1080E942B4393
:103210002B013C010E94934369837A838B839C83B7
:10322000C090E608D090E708E090E808F090E90840
:10323000C701B6010E94694669877A878B879C8798
:103240008090EA089090EB08A090EC08B090ED0810
:10325000C501B4010E9469466D877E878F87988B70
:10326000C301B2010E946946698B7A8B8B8B9C8B60
:10327000C501B4010E9493436D8B7E8B8F8B988F19
:1032800040905E0350905F03609060037090610314
:1032900022E93AE046E85FE360916A0370916B03CC
:1032A00080916C0390916D030E942B434B015C0154
:1032B0000E949343698F7A8F8B8F9C8FC701B601D1
:1032C0000E9493436D8F7E8F8F8F98A3C501B401A9
:1032D0000E94694669A37AA38BA39CA360916603AD
:1032E0007091670380916803909169030E94694619
:1032F0006B017C0129853A854B855C8569817A81E2
:103300008B819C810E94BA452D853E854F855889C9
:103310000E94BA454B015C012D893E894F89588D29
:1033200069897A898B899C890E94BA459B01AC0185
:10333000C501B4010E942B439058A30192010E9441
:10334000BA45298D3A8D4B8D5C8D0E94BA454B0153
:103350005C012D8D3E8D4F8D58A169817A818B81C5
:103360009C810E94BA45A30192010E94BA4529A1FD
:103370003AA14BA15CA10E94BA459B01AC01C501D9
:10338000B4010E942A434B015C01209162033091F9
:1033900063034091640350916503C701B6010E9425
:1033A000BA459B01AC01C501B4010E942B43209199
:1033B000F6083091F7084091F8085091F9080E94FA
:1033C0002B4320E030E040E050E40E94B1019B013B
:1033D000AC016D817E818F8198850E942B43698B22
:1033E0007A8B8B8B9C8BC090E608D090E708E0909E
:1033F000E808F090E908C701B6010E949343698389
:103400007A838B839C836091EA087091EB088091AA
:10341000EC089091ED080E9469466D837E838F834E
:10342000988780905E0390905F03A0906003B090B7
:10343000610322E93AE046E85FE360916A03709134
:103440006B0380916C0390916D030E942B432B01C1
:103450003C010E94934369877A878B879C87C701C9
:10346000B6010E9469466B017C01C301B2010E9452
:1034700069466D877E878F87988B2D813E814F812E
:10348000588569817A818B819C810E94BA45A5010A
:1034900094010E94BA4529853A854B855C850E9436
:1034A000BA452B013C01A5019401C701B6010E9458
:1034B000BA452D853E854F8558890E94BA459B01A6
:1034C000AC01C301B2010E942A4320916E033091E6
:1034D0006F0340917003509171030E942B43209120
:1034E000FA083091FB084091FC085091FD080E94B9
:1034F0002B4320E030E040E050E40E94B1019B010A
:10350000AC0169897A898B899C890E942B436B0164
:103510007C0180912A040E9466338C0120E030E017
:10352000A901C701B6010E948F4387FF0CC0C701E4
:10353000B60190580E9473466B017C01F7FAF09433
:10354000F7F8F09406C0C701B6010E9473466B01FC
:103550007C01A0913804B09139048090FE039090D2
:10356000FF03A0900004B090010498010E94FC4762
:103570000E942A4420E030E040E053E30E94BA4534
:103580002B013C01A5019401609102047091030498
:1035900080910404909105040E942A439B01AC0190
:1035A000C301B2010E94BA45A50194010E942B43B8
:1035B0009B01AC01C701B6010E942A432091060479
:1035C0003091070440910804509109040E94BA45C3
:1035D0006B017C0180900A0490900B04A0900C0475
:1035E000B0900D04A50194010E94B6451816A4F0F0
:1035F00080900E0490900F04A0901004B0901104DD
:10360000A5019401B601C7010E948F4387FD04C044
:10361000C601D7014C015D0120E030E0A901C501E0
:10362000B4010E948F4387FD17C020E030E0A9015C
:10363000C501B4010E94B64518169CF020E030E0A8
:10364000A901C501B4010E948F4381110FC0B0E0F0
:10365000A0E0F0E0E0E00EC0B0E0A0E0F0E8EFEBCA
:1036600009C0B0E0A0E0F0E8EFE304C0B82DA92D58
:10367000FA2DEB2D2091FA033091FB034091FC03CE
:103680005091FD036B2F7A2F8F2F9E2F0E942B437B
:1036900020911204309113044091140450911504A8
:1036A0000E9496436B017C0120E030E040E853E447
:1036B0000E948F4387FF0EC020E030E0A901C701C0
:1036C000B6010E94B64587FD07C0C701B6010E943A
:1036D000FE4303C06FEF01C060E0809112030E94BF
:1036E000DC34C090E602D090E702E090E802F0906F
:1036F000E9028091B6029091B702A091B802B09110
:10370000B90289839A83AB83BC83A7019601609138
:10371000CE027091CF028091D0029091D1020E948E
:103720002A432B013C0129813A814B815C816091C4
:103730009E0270919F028091A0029091A1020E942E
:103740002A439B01AC01C301B2010E9496432B01A5
:103750003C01C501B4019F7729813A814B815C818D
:103760000E942A439B01AC01C301B2010E94BA45E9
:10377000A70196010E942B430E9467446B017C01C4
:10378000C9D2811125C0C701B60199D2811120C0CB
:1037900020E030E040E85FE4C701B6010E948144C8
:1037A0006B017C015B01870120E030E0A9010E94F0
:1037B0008F4387FF11C0C701B60190580E94FE4396
:1037C00090958095709561957F4F8F4F9F4F08C062
:1037D000A12CB12C00E010E0B501C8010E94FE430D
:1037E00097FD0BC06F3F71058105910549F040F0D1
:1037F0006FEF70E080E090E003C060E070E0CB012C
:10380000809116030E948B33E091F209F091F30945
:1038100080819181A281B38180933E0990933F0979
:10382000A0934009B093410982E090E00E94533098
:10383000E091F209F091F309408151816281738135
:1038400080E090E00E944F306091E7097091E809B4
:103850008091E9099091EA090E942A442FE632E119
:1038600043E85AE30E94BA45AB01BC0181E090E015
:103870000E944F308090EB099090EC09A090ED09E8
:10388000B090EE0920E030E040E85FEBC501B40104
:103890000E948F430091F2091091F309882319F1D6
:1038A000D801CD90DD90ED90FC90A7019601C50167
:1038B000B4010E942A434B015C0120E030E040E06B
:1038C00054E3C701B6010E94BA459B01AC01C50192
:1038D000B4010E94B645181634F080E494E0909349
:1038E0004F0980934E098091F109882331F080E4DB
:1038F00094E090934F0980934E096091DF09709195
:10390000E0098091E1099091E2096F5F7F4F8F4F4D
:103910009F4F6093DF097093E0098093E1099093D2
:10392000E2090E942A442091E3093091E409409180
:10393000E5095091E6090E94BA45F8016083718358
:10394000828393838091E7099091E809A091E90926
:10395000B091EA090196A11DB11D8093E7099093EA
:10396000E809A093E909B093EA09A8960FB6F8947C
:10397000DEBF0FBECDBFDF91CF911F910F91FF90A2
:10398000EF90DF90CF90BF90AF909F908F907F90FF
:103990006F905F904F900895CF93DF9384E090E015
:1039A00057D1EEE4F9E08EEADF011D928A95E9F73E
:1039B0008FEE99E09093550980935409A2EFB9E0F6
:1039C000B0938F09A0938E09C3EED9E0D093630919
:1039D000C0936209F093B909E093B809F0935309D1
:1039E000E093520921E030E0FC013183208384E53B
:1039F00094E0909359098093580924EF39E02D936E
:103A00003C9380E090E0A0E8BFEB8093EB099093BB
:103A1000EC09A093ED09B093EE098FE692E1A3E8DB
:103A2000BAE388839983AA83BB83EDECF9E085E24E
:103A300097E1A3E2B1EA80839183A283B38381E01B
:103A400098EDABE1B8EE8093D1099093D209A093A1
:103A5000D309B093D40981E398E6AFEBBAE480933D
:103A6000D5099093D609A093D709B093D8098BE0D4
:103A700090E9AFE1BEEE8093D9099093DA09A09363
:103A8000DB09B093DC09C8E6D5E0D0935109C093B7
:103A90005009A4E6B5E0B983A88382ED94E08D9344
:103AA0009C939093670580936605ADEDB9E0B09364
:103AB0006D05A0936C05F0936B05E0936A05309358
:103AC0006F0520936E0588E6E6EEF8E0EF011992A7
:103AD0008A95E9F7E2E5F5E082E1EF0119928A952E
:103AE000E9F7ED93FC9380E190E0918380838AE68F
:103AF00092E090935505809354058AE492E0909368
:103B000057058093560586E392E09093590580937C
:103B100058058AE092E090935B0580935A05609186
:103B200016047091170480911804909119040E9452
:103B3000673A61E08091EA020E94A33461E08091DB
:103B4000EE020E94A33460911A0470911B048091CC
:103B50001C0490911D040E94673A61E08091F2027A
:103B60000E94A33461E08091F6020E94A334609128
:103B70001E0470911F0480912004909121040E94E2
:103B8000673A61E08091FA020E94A33461E080917B
:103B9000FE020E94A334609122047091230480915C
:103BA0002404909125040E94673A61E08091020309
:103BB0000E94A33461E0809106030E94A3346091C7
:103BC00026047091270480912804909129040E9472
:103BD000673A61E080910A030E94A33461E080911A
:103BE0000E030E94A33460912A0470912B048091EB
:103BF0002C0490912D040E94673A61E08091120399
:103C00000E94A33461E080911603DF91CF910C9460
:103C1000A334089560E070E080E89FE7089560E0D5
:103C200070E080E89FE7089560E070E080E89FEF33
:103C3000089560E070E080E89FEF089560E070E034
:103C400080EC9FEF089560E070E080EC9FEF0895B6
:103C5000F5DF6093080A7093090A80930A0A90932B
:103C60000B0AF1DF6093FC097093FD098093FE0954
:103C70009093FF09CFDF6093040A7093050A809345
:103C8000060A9093070ACBDF6093000A7093010A3B
:103C90008093020A9093030AC7DF60930C0A709323
:103CA0000D0A80930E0A90930F0AC3DF6093100AE7
:103CB0007093110A8093120A9093130A0895CF9279
:103CC000DF92EF92FF92CF936B017C012091040A67
:103CD0003091050A4091060A5091070A0E948F43CD
:103CE000882389F0C1E020910C0A30910D0A40919F
:103CF0000E0A50910F0AC701B6010E948F4381112D
:103D0000C0E08C2F01C081E0CF91FF90EF90DF9059
:103D1000CF900895CF93C1E09B01AC010E948F43E7
:103D2000811101C0C0E08C2FCF910895CF93DF9314
:103D3000CDB7DEB72A970FB6F894DEBF0FBECDBF62
:103D4000AC01CB0160E070E049835A836B837C83D4
:103D5000AA2797FDA095BA2F8D839E83AF83B8873E
:103D60009E01275F3F4FAE014F5F5F4F68E070E0FD
:103D70008091790590917A050E94A241811108C035
:103D800081E029853A852830310519F480E001C0A9
:103D900081E02A960FB6F894DEBF0FBECDBFDF914B
:103DA000CF9108950F931F93CF93DF931F921F928C
:103DB000CDB7DEB78B019E012F5F3F4FAC018091E5
:103DC000790590917A050E94A241811108C081E095
:103DD00029813A812017310719F480E001C081E080
:103DE0000F900F90DF91CF911F910F910895CF9376
:103DF000DF93EC0110927D0510927C05AC0160E030
:103E000070E0CB010E94632AAE0161E070E080E0C7
:103E100090E00E94632A8091790590917A05DF9164
:103E2000CF910C94F141EF92FF920F931F93CF9398
:103E3000DF931F921F92CDB7DEB78C01809177057B
:103E40009091780580179107B4F580917505909150
:103E50007605009731F00E94C148109278051092C3
:103E60007705C8010E9429489093760580937505CF
:103E7000892B19F4E12CF12C18C0109378050093CC
:103E8000770519C024E735E0AE014F5F5F4F61E071
:103E900070E08091790590917A050E94E24081114D
:103EA00007C089819A81E80EF91EE016F10654F3E5
:103EB00080E090E01FC0E12CF12C2091750530913D
:103EC0007605E016F106ACF42E0D3F1DAE014F5FF6
:103ED0005F4FB8016E197F098091790590917A053D
:103EE0000E94E2408111E4CF89819A81E80EF91E97
:103EF000E4CFC9010F900F90DF91CF911F910F91E7
:103F0000FF90EF9008950F931F93CF93DF93EB01F2
:103F10008A010CDF81110AC00115110539F0BE01BB
:103F2000C801DF91CF911F910F913CCFDF91CF91CD
:103F30001F910F910895CF92DF92EF92FF92CF934E
:103F4000DF93CDB7DEB728970FB6F894DEBF0FBE6C
:103F5000CDBF6B01E12CF12CC982DA82EB82FC82AD
:103F60002D833E834F835887AE014F5F5F4F68E0DC
:103F700070E0C9DF28960FB6F894DEBF0FBECDBF44
:103F8000DF91CF91FF90EF90DF90CF9008950F9346
:103F90001F93CF93DF93EC018B010E94DE4090933F
:103FA0007A0580937905009741F0A801BE010E942F
:103FB0006240EC01009719F40CC0C5EDD4E080918B
:103FC000790590917A050E94E14010927A0510924D
:103FD0007905CE01DF91CF911F910F9108958091C6
:103FE000790590917A050C94DB406F927F928F92C5
:103FF0009F92AF92BF92CF92DF92EF92FF920F9378
:104000001F93CF93DF9300D000D0CDB7DEB76B0105
:104010007C014A0180917D05882309F441C0940107
:10402000B701A601CE0101960E94F22E89819A81E4
:1040300018161906ACF5A12CB12C00E010E089810E
:104040009A81081719075CF76B807C806A0C7B1CCF
:10405000F3016081718182819381A4DE81111EC090
:10406000F30164817581161617062CF486819781F9
:1040700099DE811113C0C801880F991FED81FE815F
:10408000E80FF91FB701A601808191810E94952A4E
:104090000F5F1F4FF8E0AF0EB11CD1CFC401A7DEF8
:1040A00026960FB6F894DEBF0FBECDBFDF91CF913D
:1040B0001F910F91FF90EF90DF90CF90BF90AF9046
:1040C0009F908F907F906F900895CF93DF93EC0136
:1040D000AC0160E070E0CB0188DFAE0161E070E030
:1040E00080E090E0DF91CF9180CFCF9380917905F0
:1040F00090917A050E943E40C82F811109C060E06E
:1041000070E0CB0166D561E070E080E090E061D5C1
:104110008C2FCF9108950F931F9389019A01AB01C2
:10412000BC018091790590917A050E94F0411F9120
:104130000F9108954F925F926F927F928F929F920C
:10414000AF92BF92CF92DF92EF92FF920F931F93A5
:10415000CF93DF93CDB7DEB766970FB6F894DEBF87
:104160000FBECDBF4C015B018A0180917D05882384
:1041700069F080917D05882309F4BDC21A821982F5
:10418000E12CF12C78E0C72ED12C14C06DE775E03E
:104190008091790590917A050E9440408111ABC2CF
:1041A000E8CFE20EF31EE114F104D9F088E0E8163E
:1041B000F104BCF429E030E02C0F3D1F2E0D3F1D13
:1041C000AE014F5F5F4FB6016E197F09809179058F
:1041D00090917A050E94E24029813A81882309F36F
:1041E00088C2121613060CF086C280917C058111DC
:1041F00004C019861A861B861C8689859A85AB851C
:10420000BC858031910508F076C2FC01EE58FF4F65
:104210000C94F647D4011696ED91FC911797808186
:104220009181A281B38189839A83AB83BC83AE01E0
:104230004F5F5F4F64E070E085E190E06CC18D8579
:104240009E85F1DD009731F42FEF3FEFA90161E08A
:1042500070E00EC0FC01C080D180E280F380A50137
:10426000C701B6010E94182AA701960160E070E01C
:104270008DE190E03CC28D859E85D5DD009721F4CF
:104280002FEF3FEFA9010FC0DC01CD90DD90ED9045
:10429000FD90AD0197018601B501C401B0D5A7011C
:1042A0009601882319F061E070E002C060E070E0E0
:1042B0008BE190E01CC28D859E85B5DD009721F4D1
:1042C0002FEF3FEFA9010EC0FC01C190D190E1900A
:1042D000F190BF01A7019601C40186D7A7019601FD
:1042E000882319F061E070E002C060E070E08CE1CA
:1042F00090E0FDC1D4011496ED91FC911597E080FA
:10430000F180F70102811381A080B18060E1462E27
:10431000512C612C712C49825A826B827C8288E0FC
:1043200090E0A0E0B0E08D839E83AF83B8879E01CC
:104330002F5E3F4FAE014F5F5F4F68E070E08091AE
:10434000790590917A050E94A241882319F0E12C09
:10435000F12CAEC089899A890897C9F7D701CD9009
:10436000DC90B8E0CB0ED11CCC0CDD1CCC0CDD1CE1
:10437000C6010E9429487C01009749F349825A826C
:104380006B827C82C601AA2797FDA095BA2F8D83E8
:104390009E83AF83B8879E012F5E3F4FAE014F5F74
:1043A0005F4F68E070E08091790590917A050E94F6
:1043B000A24181117DC089899A89089709F078C046
:1043C000D4011296ED91FC91139740815181628145
:1043D0007381D7014D935D936D937C9313974481C3
:1043E00055816681778114964D935D936D937C938F
:1043F0001797408551856285738518964D935D9317
:104400006D937C931B9784859585A685B785F70169
:1044100084879587A687B787108A118A128A138A9C
:1044200084E090E0A0E0B0E0848B958BA68BB78B06
:1044300080913C0490913D04A0E0B0E0808F918F8A
:10444000A28FB38FC501AA2797FDA095BA2F848F9D
:10445000958FA68FB78FB801A701405E5F4F20E010
:1044600030E02A153B057CF4DB018D919D91BD0167
:10447000A0E0B0E0FA0181939193A193B193AF01D1
:104480002F5F3F4FEECF9E012F5E3F4FA701B6013A
:104490008091790590917A050E94A241811108C00E
:1044A00089899A898C159D0519F481E080937C0592
:1044B000C70166960FB6F894DEBF0FBECDBFDF9181
:1044C000CF911F910F91FF90EF90DF90CF90BF9011
:1044D000AF909F908F907F906F905F904F900C94D3
:1044E000C1488D859E85AF85B8890097A105B10526
:1044F00029F199DC009789F481E090E0A0E0B0E038
:1045000089839A83AB83BC83AE014F5F5F4F64E0C6
:1045100070E082E190E0F7DCEEC0BC01C401ACD2F7
:1045200019821A821B821C82AE014F5F5F4F64E0CA
:1045300070E082E190E0E7DC8111DDC081E08093F2
:104540007B05D9C0D4011496ED91FC91159701908B
:10455000F081E02D008511850115110509F460C079
:10456000D801ED90FC90C280D38020E030E060E084
:1045700070E080E090E08E159F050CF5F801A281B7
:10458000B381A20FB31F1296ED91FC911397EE0F1A
:10459000FF1FEC0DFD1D0190F081E02D16960D9092
:1045A000BC91A02DEA9FA001EB9F500DFA9F500DEA
:1045B0001124640F751F0196285F3F4FDCCF83E104
:1045C00090E0B4DB811197C0812C912CA12CB12CEF
:1045D000AE14BF040CF08FC0D8011296ED91FC917F
:1045E0001397E80DF91DA281B381AA0FBB1FAC0D73
:1045F000BD1D2D913C9186819781289FB001299FF7
:10460000700D389F700D112480819181CBDBB8E053
:104610008B0E911C81116FC0EFEFAE1ABE0AD8CF7E
:1046200060E070E083E190E081DB65C040E050E055
:1046300060E070E081E190E066DC81115CC0C12C3B
:10464000D12C7601C701B601C1D38091060688231B
:1046500021F0A501C701B601C8DCA501C701B6015B
:10466000DCD2FFEFCF1ADF0AEF0AFF0A82E0C8169A
:10467000D104E104F10431F710927D0510927C051C
:104680008091790590917A050E944B4034C081E079
:1046900090E0909308068093070640E050E060E0C9
:1046A00070E086E190E037CF81E0D8018C9323C0A1
:1046B0008D859E85B8DB009731F42FEF3FEFA90180
:1046C00061E070E012C0FC012081318142815381A0
:1046D000CA01B9012B8B3C8B4D8B5E8BFFD62B898E
:1046E0003C894D895E8960E070E08EE190E023DCDA
:1046F00002C0C5017CDB66960FB6F894DEBF0FBE24
:10470000CDBFDF91CF911F910F91FF90EF90DF9080
:10471000CF90BF90AF909F908F907F906F905F9061
:104720004F900895CF92DF92EF92FF92CF93DF9355
:10473000EC01C12CD12C7601C701B60147D3AE01E3
:10474000C701B60152DCAE01C701B60166D2809145
:10475000750590917605009731F00E94C14810923E
:104760007605109275058FEFC81AD80AE80AF80A7C
:1047700082E0C816D104E104F104F1F680917C05D1
:10478000882359F040E050E060E070E084E190E080
:10479000BADBC82F10927C0501C0C0E080917D0576
:1047A000882341F010927D0521E030E030933D04F4
:1047B00020933C048091790590917A050E944E40A7
:1047C0008091790590917A050E94E1408C2FDF91CC
:1047D000CF91FF90EF90DF90CF900895CF93DF932C
:1047E000EC01AC0160E070E0CB010E94692EAE01EB
:1047F00061E070E080E090E0DF91CF910C94692E51
:1048000060E070E0CB010E94CE2E61E070E080E0BD
:1048100090E00C94CE2ECF92DF92EF92FF920F9306
:104820001F93CF93DF93EC016A017B0100E010E05E
:104830009801A4D601E010E020E030E0B701A60125
:10484000CE019CD6DF91CF911F910F91FF90EF90F9
:10485000DF90CF900895EF92FF920F931F93CF9325
:10486000DF93DC01EA01F90114968D919C91159773
:1048700012960D911C911397080F191F28813981E9
:1048800018964D915C9119974217530728F04D9156
:104890005C911197452B59F17801E21AF30A1896A9
:1048A0004D915C911997481B590B4E0D5F1D461792
:1048B0005707B4F1A901460F571F4017510700F1E0
:1048C000F182E082338322836E197F0975836483CA
:1048D000161617061CF030E020E002C0382F292FF2
:1048E00036832783680F791F7983688317C01896EA
:1048F0008D919C911997821B930B8617970784F0D3
:104900007183608333832283158214821782168217
:1049100088819981860F971F9983888380E001C0E1
:1049200081E0DF91CF911F910F91FF90EF9008955B
:10493000CF93DF9324E4269FE001279FD00D11241D
:10494000C258DA4F8AA99BA9009721F00E94C1485A
:104950001BAA1AAA8EA99FA9009711F00E94C1480C
:104960001B8A1A8A1E8A1F8A188E198E1A8E1B8E0F
:104970001C8E1D8E1E8E1F8E18A219A281E090E043
:104980009BA38AA31DA21CA21EA21FA218A619A641
:104990001BA61AA61DA61CA61EA61FA618AA19AA03
:1049A0001BAA1AAA1DAA1CAA1FAA1EAA19AE18AED3
:1049B0001AAE1BAE1CAE1DAEFE01FE961082118219
:1049C00012821382CE5BDF4F19821882DF91CF9162
:1049D0000895CF93DF93FB01DC01CD91DC91AE8193
:1049E000BF818081918123E0880F991F2A95E1F78B
:1049F00012960D90BC91A02DA80FB91F6D917C91BE
:104A0000119784859585880F991F0A80DB81C02DB9
:104A1000C80FD91F0990D881C02D14968D919C91F3
:104A20001597892B19F082E090E002C081E090E0B8
:104A30008C9F90018D9F300D9C9F300D112480859F
:104A40009185289FD001299FB00D389FB00D11246A
:104A50000480F581E02D2E9FC0012F9F900D3E9F79
:104A6000900D1124860F971FFA0191838083B383E1
:104A7000A283DF91CF9108952F923F924F925F9240
:104A80006F927F928F929F92AF92BF92CF92DF925E
:104A9000EF92FF920F931F93CF93DF9300D000D03C
:104AA000CDB7DEB7DC011496ED91FC91159701901E
:104AB000F081E02D808591859A838983A281B381DD
:104AC000BC83AB83DB018D909D90AD90BD90C12CDC
:104AD000D12C7601C814D904EA04FB040CF060C0A0
:104AE00014964D905D906D907C90179718964D910F
:104AF0005D916D917C911B97FD017096FE83ED8316
:104B00008D919C91119763E0880F991F6A95E1F749
:104B1000E981FA8122813381280F391FF901208030
:104B200031801C96ED91FC911D97EE0FFF1F8B813C
:104B30009C81E80FF91F0190F081E02DD9011496B6
:104B40008D919C911597892B19F082E090E002C01D
:104B500081E090E08E9F90018F9F300D9E9F300DE1
:104B60001124249F8001259F100D349F100D1124C6
:104B7000249DC001259D900D349D900D1124A80108
:104B80006D817E81820D931D0E945049AD81BE8151
:104B9000A00FB11FEFEFCE1ADE0AEE0AFE0A9ACF7F
:104BA00026960FB6F894DEBF0FBECDBFDF91CF9132
:104BB0001F910F91FF90EF90DF90CF90BF90AF903B
:104BC0009F908F907F906F905F904F903F902F902D
:104BD0000895CF93DF9324E4269FF001279FF00DE3
:104BE0001124E258FA4FDB01A65CBB4F3C91332302
:104BF00029F0EF0119922A95E9F71C921482158287
:104C0000168217821186108613861286118A108AE0
:104C100017861686DF91CF918BCE2F923F924F92BF
:104C20005F926F927F928F929F92AF92BF92CF923C
:104C3000DF92EF92FF920F931F93CF93DF9300D0F9
:104C40001F92CDB7DEB76B017C011A0184E48C9D05
:104C500090018D9D300D112422583A4F3C832B83B7
:104C6000F90184819581A681B781892B8A2B8B2BB1
:104C700009F495C0A12CB12C412C512C3201AB81EF
:104C8000BC8114964D915D916D917C91179718960A
:104C90008D919C91199744165506660677068CF5FA
:104CA000FC01EA0DFB1D32812381032F122F812C81
:104CB000912C82149304C4F4D801ED91FC913097A7
:104CC00069F0848195812A8339830E94C148F80163
:104CD000808191810E94C14839812A81FFEF8F1A1A
:104CE0009F0A0E5F1F4FE5CF832F922F0E94C1486E
:104CF0002FEF421A520A620A720A34E0A30EB11C64
:104D0000BECF0E94C148EB81FC8182859385892BAF
:104D1000E1F0A12CB12C00E010E0AB81BC811A962F
:104D20008D919C911B97021513056CF4FC01EA0D03
:104D3000FB1D848195810E94C1480F5F1F4FFEE0DB
:104D4000AF0EB11CEACF0E94C148EB81FC81808983
:104D500091890E94C148AB81BC811E968D919C9126
:104D60001F970E94C148C701B601E2DDC701B60125
:104D70000F900F900F900F90DF91CF911F910F9197
:104D8000FF90EF90DF90CF90BF90AF909F908F906B
:104D90007F906F905F904F903F902F901ACF0F9021
:104DA0000F900F900F90DF91CF911F910F91FF9077
:104DB000EF90DF90CF90BF90AF909F908F907F90BB
:104DC0006F905F904F903F902F90089524E4269F1E
:104DD000F001279FF00D1124E258FA4F8289938940
:104DE0000497029758F485E090E0938B828B8FEFC5
:104DF0009FEFDC01828F938FA48FB58F08952F9240
:104E00003F924F925F926F927F928F929F92AF925A
:104E1000BF92CF92DF92EF92FF920F931F93CF93A7
:104E2000DF93CDB7DEB7AA970FB6F894DEBF0FBEFB
:104E3000CDBF9AA389A31B016A010B8B1C8B2D8B01
:104E40003E8B84E42B893C89829F8001839F100DD7
:104E5000112402581A4F2B893C894D895E89D8014B
:104E60002D933D934D935C931397AB016B897C8994
:104E70008D899E89D2DEF6014191519161917191A6
:104E80007F01CA01D80114964D935D936D937C9375
:104E9000179764E070E00E940F48F80191878087BF
:104EA000892B09F46DC118A21F8E1B8E1C8E1D8EBE
:104EB0001E8EF80184819581A681B7812B8D3C8D52
:104EC0004D8D5E8D281739074A075B070CF0D1C05E
:104ED000D80118960D90BC91A02D2F8D38A1A20F4E
:104EE000B31FBA8BA98BD7018D919C91880F991F05
:104EF000A9A1BAA1ED91FC91E80FF91F80819181E0
:104F0000E989FA8991838083D70114962D913D9187
:104F10004D915C9117972BA33CA34DA35EA3B8E0E2
:104F2000EB0EF11C62E070E0C1010E940F48E989BC
:104F3000FA8993838283892B09F422C11F8A188EF0
:104F4000198E1A8E2F89388D498D5A8D8BA19CA16F
:104F5000ADA1BEA1281739074A075B070CF018C19D
:104F6000D701CD90DC90CC0CDD1CE989FA89A280B8
:104F7000B380AC0CBD1C68E070E081E090E00E9462
:104F80000F48D5018D939C93A989BA891296ED910A
:104F9000FC911397EC0DFD1D80809180811491048C
:104FA00009F4EEC0F7014481558166817781CA0119
:104FB000D4014D935D936D937C931397B8E0EB0E02
:104FC000F11C64E070E00E940F48F4019583848333
:104FD000892B09F4D5C0A12CB12C412C512C3201C4
:104FE000F40180819181A281B381481659066A0635
:104FF0007B0694F5D4011496CD90DC901597CA0CDD
:10500000DB1CF701DE01119680E101900D928A957B
:10501000E1F7B0E1EB0EF11CA601BE016F5F7F4F1F
:10502000E9A1FAA184819581D4DCD40116968D91F1
:105030009C911797F60122813381820F931F179657
:105040009C938E931697FFEF4F1A5F0A6F0A7F0AA1
:1050500024E0A20EB11CC4CF2F89388D498D5A8D02
:105060002F5F3F4F4F4F5F4F2F8B388F498F5A8F96
:1050700069CF6EE070E0C1010E940F48D8011B9615
:105080009C938E931A97612C712C812C912CA12CBE
:10509000B12C44244394512C821493040CF050C03E
:1050A000F70141915191619171917F01CA01D8013C
:1050B0001A96CD90DC901B97C60CD71C57FD60C08C
:1050C000F60151824082009791F04FA358A769A73B
:1050D0007AA70E942948D60115969C938E9314971F
:1050E0004FA158A569A57AA5892B21F449C0F601DD
:1050F00015821482D60113965C934E9312971496E0
:105100008D919C91159717969C938E93169719964F
:105110009C938E9318971B961C921E921A9781E06F
:1051200090E0452B462B472B11F480E090E0A80E31
:10513000B91EBFEF8B1A9B0AEEE06E0E711CACCF4E
:10514000D8011D961C921E921C97C501F3E0880F92
:10515000991FFA95E1F70E942948F801918B808BFD
:10516000892B71F0C501880F991F0E942948D80129
:105170001F969C938E931E97892B11F080E01BC085
:10518000A1016B897C898D899E8947DD81E013C0EF
:105190002B8D3C8D4D8D5E8D2F5F3F4F4F4F5F4F61
:1051A0002B8F3C8F4D8F5E8F2F8D38A12C5F3F4F03
:1051B00038A32F8F7ECEAA960FB6F894DEBF0FBE0F
:1051C000CDBFDF91CF911F910F91FF90EF90DF90B6
:1051D000CF90BF90AF909F908F907F906F905F9097
:1051E0004F903F902F9008953F924F925F926F9211
:1051F0007F928F929F92AF92BF92CF92DF92EF9267
:10520000FF920F931F93CF93DF93CDB7DEB76497D1
:105210000FB6F894DEBF0FBECDBF4C01FB01298B4A
:105220003A8B4B8B5C8B84E4829F8001839F100DB3
:10523000112400571A4F80819181D80113969C93B5
:105240008E931297448155816681778114964D9390
:105250005D936D937C931797408551856285738527
:1052600018964D935D936D937C931B97448555855C
:10527000668577851C964D935D936D937C931F9700
:1052800040895189628973895C964D935D936D93D2
:105290007C935F977F01B4E1EB0EF11C14161506A9
:1052A0000CF05DC0CA01880F991F880F991F0E94DA
:1052B0002948F80191A380A3892B09F499C0A12C56
:1052C000B12C412C512C320130E1332EB301A2011B
:1052D0002FEF421A520A620A720AF801848D958DE4
:1052E000A68DB78D481759076A077B0764F5D80163
:1052F0009096CD90DC909197CA0CDB1CF701DE01F3
:105300001196832D01900D928A95E1F7B0E1EB0E95
:10531000F11CA601BE016F5F7F4FF401848195816E
:1053200058DBD80192968D919C919397F60122813A
:105330003381820F931F93969C938E939297F4E000
:10534000AF0EB11CC3CF82A193A10E942948D801FE
:1053500095969C938E939497892B09F449C0F701F5
:1053600080819181A281B381AC01BD014D7F21E09B
:1053700030E0452B462B472B11F020E030E0F801C0
:10538000318B208B0197A109B10921E030E0029710
:10539000A105B10510F020E030E0D80153963C9310
:1053A0002E935297F70184819581A681B781F801E8
:1053B000848B958BA68BB78B84859585A685B785C1
:1053C000B7FF10C0B095A095909581959F4FAF4FB6
:1053D000BF4F80A791A7A2A7B3A7148615861686EC
:1053E00017860DC0F80110A611A612A613A607C0B5
:1053F00069897A898B899C899BDA81E001C080E088
:1054000064960FB6F894DEBF0FBECDBFDF91CF918B
:105410001F910F91FF90EF90DF90CF90BF90AF90D2
:105420009F908F907F906F905F904F903F900895E6
:10543000CF93DF9324E4269FF001279FF00D1124E2
:10544000E258FA4F1092060615A614A620E030E0A6
:1054500080E090E0C1E0D0E08417950714F5A285C4
:10546000B385A20FB31F12966D917C9113971616F8
:1054700017069CF414966D917C91159717967C9362
:105480006E93169719967C936E9318971B961C92A1
:105490001E921A971196DC93CE930196225F3F4F8E
:1054A000DBCF13A612A611AE10AEDF01DE961D9261
:1054B0001D921D921C92139782E090E0938B828B39
:1054C000DF91CF91089524E4269FF001279FF00DEE
:1054D0001124E258FA4F138A128A9FCB24E4269FA4
:1054E000F001279FF00D1124E258FA4F8289938929
:1054F00081309105C8F08530910518F0059769F065
:1055000008958FEF9FEFDC01828F938FA48FB58F6B
:1055100085E090E0938B828B08958FEF9FEFDC0105
:10552000828F938FA48FB58F089524E4249FF00178
:10553000259FF00D1124E258FA4F2EE0AC01249F74
:10554000C001259F900D11240284F385E02DE80F02
:10555000F91F81E080930606828593859187808775
:10556000408551852681378181E090E042175307BD
:1055700011F080E090E09183808308952F923F9214
:105580004F925F926F927F928F929F92AF92BF9253
:10559000CF92DF92EF92FF920F931F93CF93DF93FF
:1055A000CDB7DEB7C454D1090FB6F894DEBF0FBE35
:1055B000CDBF98AF8FAB4BA75CA76DA77EA72396F7
:1055C0000CAF1DAF2EAF3FAF239784E421962EADD5
:1055D0003FAD2197829F1001839F300C1124C101A0
:1055E00082589A4F1C01DC011A960D90BC91A02D97
:1055F0002596BFAFAEAF2597FC01828993890297AC
:1056000009F018C186A597A5A0A9B1A9892B8A2B55
:105610008B2B29F484E090E0938B828B0BC1D1011A
:1056200084899589EFA9F8ADE817F90709F002C157
:10563000D6960D911C91D7971AAE19AE412C512CCC
:105640003201F10186A597A5A0A9B1A9481659066E
:105650006A067B060CF0D0C0D101D2960D90BC91A9
:10566000A02DE9ADFAADAE0FBF1FBAABA9AB129634
:105670002D913C9113973CAF2BAF369527953695DE
:1056800027953EAF2DAFD101D8968D919C91D9979A
:10569000892B09F495C09696CD90DD90ED90FC9005
:1056A000999718AB0FA7E9A9FAA90190F081E02D0D
:1056B000FCABEBAB1EAA1DAAEDA9FEA92DAD3EAD1C
:1056C000E217F3070CF07CC0D10192968D919C916A
:1056D0009397892B79F1EBA9FCA980809180A28016
:1056E000B380A7019601C501B4010E94B64587FDAC
:1056F0000CC0A7019601AFA5B8A96D917D918D91C0
:105700009C910E948F4387FD7CC0A7019601C50133
:10571000B4010E94B64518166CF4A7019601EFA5D6
:10572000F8A960817181828193810E948F438823CF
:1057300009F467C0D10194968D919C919597892B1E
:1057400071F1EBA9FCA980809180A280B380A701B0
:105750009601C501B4010E948F4387FF0CC0A701C9
:105760009601AFA5B8A96D917D918D919C910E94F4
:10577000B64587FF46C0A7019601C501B4010E9446
:105780008F4381110CC0A7019601EFA5F8A9608194
:105790007181828193810E94B645181694F12DA9DA
:1057A0003EA92F5F3F4F3EAB2DAB8FA598A9049626
:1057B00098AB8FA7ABA9BCA91496BCABABAB7CCF05
:1057C000A9A9BAA96D917C914BAD5CADC8010E94AD
:1057D00050498DAD9EAD880F991F880F991F080FF6
:1057E000191FBFEF4B1A5B0A6B0A7B0AE9ADFAADD2
:1057F0003496FAAFE9AF25CF81E090E091AF80AF6A
:1058000019C0F101868D978DA0A1B1A1892B8A2B9A
:105810008B2B09F03AC284E090E0D10153969C931F
:105820008E935297DE968D919C91DF979B969C93D9
:105830008E939A97D10152968D919C915397823075
:10584000910589F4DA968D919D910D90BC91A02DD2
:10585000181619061A061B060CF021C2E1E0F0E04A
:10586000F8ABEFA705C0049709F019C218AA1FA644
:105870008EE02FA938AD829F5001839FB00C112478
:1058800025968EAD9FAD2597A80EB91ED50112960F
:105890004D915C9113974115510509F400C216967C
:1058A0008D919C9117979AA789A7FE01319684E163
:1058B000DF011D928A95E9F723968CAD9DADAEADC3
:1058C000BFAD2397898B9A8BAB8BBC8BAFA5B8A947
:1058D000AB2B09F448C04101BEE38B0E911CF401CF
:1058E000C080D180E280F380F10182AD93ADA4ADA0
:1058F000B5ADC816D906EA06FB06A9F5D50114967A
:105900006D917C91159718960D90BC91A02D1496D1
:105910000D911D912D913C911797C8010D8B1E8BF8
:105920002F8B388F08969E8B8D8BF50120853185C6
:10593000280F391F3187208780859185460F571F93
:10594000841B950B97FD04C0680F791F71876087D2
:10595000F1E0CF1AD108E108F108D401CD92DD922F
:10596000ED92FC9213979E012B5E3F4FAE01475D77
:105970005F4F64E170E0C5010E942B24082F10E006
:105980000115110509F06DC18CE090E0A0E0B0E0D8
:105990008D839E83AF83B8879E01235E3F4FAE0108
:1059A000475D5F4F64E070E0C5010E942B24082F23
:1059B00010E00115110509F054C180E190E0A0E06C
:1059C000B0E08D839E83AF83B8874D8D5E8DBE0121
:1059D000655D7F4F8F8D98A10E9450498BA19CA13E
:1059E000009761F06D8D7E8DEBE2F0E0EC0FFD1F16
:1059F0006E0F7F1F49A15AA10E9450491DA21EA2ED
:105A00001FA218A62FA938AD220F331F3EAB2DAB16
:105A1000CDA0DEA0EFA0F8A4F10184819581A6813C
:105A2000B781C816D906EA06FB060CF0CBC0D10137
:105A30001896ED91FC911997C601880F991F880F50
:105A4000991FE80FF91FA081B1818C91882309F477
:105A5000AFC0833009F4ACC00280F381E02D2DA9E2
:105A60003EA9E20FF31F808191819CAB8BAB892B08
:105A700009F49EC089859A85AB85BC850196A11DD8
:105A8000B11D89879A87AB87BC879E01235E3F4FF4
:105A9000AE01475D5F4F64E070E0C5010E942B24BA
:105AA00090E0009709F0DCC08D819E81AF81B885C0
:105AB0000496A11DB11D8D839E83AF83B8874D8D44
:105AC0005E8DBE016B5D7F4F8F8D98A10E94504906
:105AD0008BA19CA1009761F06D8D7E8DA5E2B0E059
