:100000001EC1000060C200008FC20000BEC200001E
:10001000EDC200001CC300004BC300007AC3000007
:10002000A9C300003DC100003BC1000039C1000070
:1000300037C100000C94B00A33C1000031C1000088
:100040002FC100002DC100002BC1000029C10000FC
:1000500027C1000025C1000023C10000BCC300006F
:100060001FC10000BDC60000F1C6000019C100009C
:1000700017C1000015C1000013C1000011C100002C
:100080000FC100000DC100000BC1000009C100003C
:1000900049C700007DC7000003C1000001C1000086
:1000A000FFC00000FDC00000FBC00000F9C0000060
:1000B000F7C00000F5C00000F3C00000F1C0000070
:1000C000EFC00000EDC000000C94100BCDC7000085
:1000D0000C946A08E5C000000C94D6080C940C0936
:1000E000DFC00000BB04C004C504CF04D90452051E
:1000F000E304EB04F304FD040705110520052A05BC
:10010000520534053E0548057405770566056A0500
:100110007005AE057B057F05850589058D05930571
:1001200097059B05AE05A105A505A90500000A0BCD
:1001300002090C0D0E080703040100000000000076
:1001400000000000000000000000000000000000AF
:10015000000000000000000012111000000000006C
:10016000000000000000000000000000000000008F
:1001700000000102102020080810204010204080BC
:10018000020102010804020101020408102040805B
:1001900080402010080402018004020180402010E9
:1001A0000804020108040201010204081020408032
:1001B0000102040810204080050505050705080810
:1001C0000808020202020A0A0808040404040101E1
:1001D00001010101010103030303030303030407F6
:1001E00007070C0C0C0C0C0C0C0C0202020206068D
:1001F0000606060606060B0B0B0B0B0B0B0B000083
:100200002200250028002B002E00310034000201BE
:100210000000050108010B01000021002400270057
:100220002A002D0030003300010100000401070105
:100230000A0102004F07F10793083509AF0911249D
:100240001FBECFEFD1E2DEBFCDBF00E00CBF12E09A
:10025000A0E0B2E0EAE7FBE100E00BBF02C00790DC
:100260000D92A834B107D9F724E0A8E4B2E001C0A8
:100270001D92A73EB207E1F712E0CEE3D2E000E024
:1002800006C022970109FE010BBF0E94B70DC433BF
:10029000D10780E00807A9F70E94790B0C94BB0DE9
:1002A000AFCE4F925F926F927F928F929F92AF925A
:1002B000BF92CF92DF92EF92FF92CF93DF9300D065
:1002C0001F92CDB7DEB78090220290902302A090BB
:1002D0002402B0902502C0902602D0902702E09020
:1002E0002802F09029029601A701C501B4010E94DD
:1002F000280D181684F0C0902A02D0902B02E090AE
:100300002C02F0902D029601A701C501B4010E94B4
:100310001B0C87FF04C0C601D7014C015D0120E022
:1003200030E0A901C501B4010E941B0C87FD34C057
:1003300020E030E0A901C501B4010E94280D181683
:100340000CF4AAC020E030E0A901C501B4010E946C
:100350001B0C882309F4A5C020E030E040E853E4FA
:10036000C501B4010E941B0C87FF14C020E030E0DF
:10037000A901C501B4010E94280D87FD0DC0582DAB
:10038000492D3A2D2B2D652F742F832F922F0E94EC
:10039000870C03C06FEF01C060E080911A0218D48F
:1003A000C0901602D0901702E0901802F090190247
:1003B00080910E0290910F02A0911002B091110253
:1003C00089839A83AB83BC83A70196016091120253
:1003D0007091130280911402909115020E94B60B45
:1003E0002B013C0129813A814B815C8160910A0299
:1003F00070910B0280910C0290910D020E94B60B3D
:100400009B01AC01C301B2010E941F0C2B013C01F6
:10041000C501B4019F7729813A814B815C810E949B
:10042000B60B9B01AC01C301B2010E942C0DA701C8
:1004300096010E94B70B6B017C0120E030E040E8A0
:1004400053E40E941B0C87FF0EC020E030E0A9019E
:10045000C701B6010E94280D87FD07C0C701B6017C
:100460000E94870C03C06FEF01C060E070E08091D4
:100470001E020F900F900F900F90DF91CF91FF9081
:10048000EF90DF90CF90BF90AF909F908F907F9034
:100490006F905F904F904BC250E040E030E82FE308
:1004A00072CF50E040E030E020E06DCF1092E604E3
:1004B0001092E50461E080911A0251D361E08091CD
:1004C0001E024DC308951F920F920FB60F92112472
:1004D0000BB60F922F933F934F935F936F937F933E
:1004E0008F939F93AF93BF93EF93FF9380914C02B1
:1004F00090914D02892B29F0E0914C02F0914D0230
:100500001995FF91EF91BF91AF919F918F917F913D
:100510006F915F914F913F912F910F900BBE0F9074
:100520000FBE0F901F9018951F920F920FB60F924B
:1005300011240BB60F922F933F934F935F936F93BA
:100540007F938F939F93AF93BF93EF93FF9380918C
:100550004E0290914F02892B29F0E0914E02F091CA
:100560004F021995FF91EF91BF91AF919F918F919C
:100570007F916F915F914F913F912F910F900BBEA3
:100580000F900FBE0F901F9018951F920F920FB6ED
:100590000F9211240BB60F922F933F934F935F93BB
:1005A0006F937F938F939F93AF93BF93EF93FF933B
:1005B0008091500290915102892B29F0E0915002D4
:1005C000F09151021995FF91EF91BF91AF919F91D9
:1005D0008F917F916F915F914F913F912F910F90EC
:1005E0000BBE0F900FBE0F901F9018951F920F9289
:1005F0000FB60F9211240BB60F922F933F934F9388
:100600005F936F937F938F939F93AF93BF93EF937A
:10061000FF938091520290915302892B29F0E0912F
:100620005202F09153021995FF91EF91BF91AF9152
:100630009F918F917F916F915F914F913F912F91FA
:100640000F900BBE0F900FBE0F901F9018951F922A
:100650000F920FB60F9211240BB60F922F933F9368
:100660004F935F936F937F938F939F93AF93BF93BA
:10067000EF93FF938091480290914902892B29F0D2
:10068000E0914802F09149021995FF91EF91BF91D5
:10069000AF919F918F917F916F915F914F913F911A
:1006A0002F910F900BBE0F900FBE0F901F901895BB
:1006B0001F920F920FB60F9211240BB60F922F9329
:1006C0003F934F935F936F937F938F939F93AF93DA
:1006D000BF93EF93FF9380914A0290914B02892B35
:1006E00029F0E0914A02F0914B021995FF91EF91A8
:1006F000BF91AF919F918F917F916F915F914F913A
:100700003F912F910F900BBE0F900FBE0F901F9037
:1007100018951F920F920FB60F9211240BB60F92DD
:100720002F933F934F935F936F937F938F939F93F9
:10073000AF93BF93EF93FF93809154029091550232
:10074000892B29F0E0915402F09155021995FF91FF
:10075000EF91BF91AF919F918F917F916F915F9139
:100760004F913F912F910F900BBE0F900FBE0F90A6
:100770001F9018951F920F920FB60F9211240BB66F
:100780000F922F933F934F935F936F937F938F932A
:100790009F93AF93BF93EF93FF93809156029091F5
:1007A0005702892B29F0E0915602F09157021995D2
:1007B000FF91EF91BF91AF919F918F917F916F9139
:1007C0005F914F913F912F910F900BBE0F900FBEF5
:1007D0000F901F9018951F920F920FB60F92112431
:1007E0002F933F938F939F93AF93BF938091590221
:1007F00090915A02A0915B02B0915C023091580234
:1008000023E0230F2D3720F40196A11DB11D05C053
:1008100026E8230F0296A11DB11D20935802809354
:10082000590290935A02A0935B02B0935C028091AC
:100830005D0290915E02A0915F02B091600201960C
:10084000A11DB11D80935D0290935E02A0935F0293
:10085000B0936002BF91AF919F918F913F912F9183
:100860000F900FBE0F901F901895789484B58260FA
:1008700084BD84B5816084BD85B5826085BD85B544
:10088000816085BDEEE6F0E0808181608083E1E8F3
:10089000F0E010828081826080838081816080832B
:1008A000E0E8F0E0808181608083E1EBF0E080812E
:1008B00084608083E0EBF0E0808181608083E1E907
:1008C000F0E0808182608083808181608083E0E9C4
:1008D000F0E0808181608083E1EAF0E080818260E5
:1008E0008083808181608083E0EAF0E080818160A4
:1008F0008083E1E2F1E08081826080838081816099
:100900008083E0E2F1E0808181608083EAE7F0E0CB
:100910008081846080838081826080838081816027
:1009200080838081806880831092C10008951F9326
:10093000CF93DF93182FEB0161E011D1209711F4D1
:1009400060E004C0CF3FD10531F461E0812FDF9139
:10095000CF911F913DC1E12FF0E0E45DFE4F449146
:1009600050E0FA013197E231F10508F09BC0EE58F2
:10097000FF4F0C94B10D84B5806884BDC7BD97C08E
:1009800084B5806284BDC8BD92C0809180008068BB
:1009900080938000D0938900C093880088C08091A4
:1009A0008000806280938000D0938B00C0938A0087
:1009B0007EC080918000886080938000D0938D00FD
:1009C000C0938C0074C08091B00080688093B000A8
:1009D000C093B3006CC08091B00080628093B0007F
:1009E000C093B40064C080919000806880939000B0
:1009F000D0939900C09398005AC080919000806273
:100A000080939000D0939B00C0939A0050C0809137
:100A10009000886080939000D0939D00C0939C00CC
:100A200046C08091A00080688093A0008091A000C3
:100A30008F7B8093A000D093A900C093A80037C0FB
:100A40008091A00080628093A000D093AB00C093FF
:100A5000AA002DC08091A00088608093A000D09350
:100A6000AD00C093AC0023C08091200180688093CA
:100A70002001D0932901C093280119C08091200141
:100A8000806280932001D0932B01C0932A010FC074
:100A900080912001886080932001D0932D01C09324
:100AA0002C0105C0C038D1050CF04FCF49CFDF91E4
:100AB000CF911F91089590E0FC013197E231F1054B
:100AC00008F04CC0EC57FF4F0C94B10D80918000A2
:100AD0008F7703C0809180008F7D80938000089580
:100AE00080918000877FF9CF84B58F7702C084B56D
:100AF0008F7D84BD08958091B0008F7703C0809171
:100B0000B0008F7D8093B0000895809190008F7722
:100B100007C0809190008F7D03C080919000877FF7
:100B20008093900008958091A0008F7707C08091F6
:100B3000A0008F7D03C08091A000877F8093A000DC
:100B40000895809120018F7707C0809120018F7DCB
:100B500003C080912001877F809320010895CF9367
:100B6000DF9390E0FC01EE58FE4F2491FC01E85425
:100B7000FE4F8491882349F190E0880F991FFC0172
:100B8000E85EFD4FA591B49182509E4FFC01C59146
:100B9000D4919FB7611108C0F8948C91209582235D
:100BA0008C93888182230AC0623051F4F8948C912E
:100BB000322F309583238C938881822B888304C0C5
:100BC000F8948C91822B8C939FBFDF91CF910895E5
:100BD0000F931F93CF93DF931F92CDB7DEB7282FCC
:100BE00030E0F901E45DFE4F8491F901EE58FE4FCB
:100BF0001491F901E854FE4F04910023C1F08823B9
:100C000019F0698358DF6981E02FF0E0EE0FFF1FD4
:100C1000E250FE4FA591B4919FB7F8948C91611169
:100C200003C01095812301C0812B8C939FBF0F902F
:100C3000DF91CF911F910F910895FC01818D228D3D
:100C400090E0805C9F4F821B91098F7399270895D4
:100C5000FC01918D828D981731F0828DE80FF11D86
:100C6000858D90E008958FEF9FEF0895FC01918DA1
:100C7000828D981761F0828DDF01A80FB11D5D96FE
:100C80008C91928D9F5F9F73928F90E008958FEF6C
:100C90009FEF0895FC01848DDF01A80FB11DA35AB9
:100CA000BF4F2C91848D90E001968F739927848F8C
:100CB000A689B7892C93A089B1898C9180648C9383
:100CC000938D848D981306C00288F389E02D80816E
:100CD0008F7D80830895CF93DF93EC01888D8823E7
:100CE000C1F0EA89FB89808185FD05C0A889B989A1
:100CF0008C9186FD0EC00FB607FCF5CF808185FF75
:100D0000F2CFA889B9898C9185FFEDCFCE01C2DFE2
:100D1000E8CFDF91CF910895CF92DF92FF920F93AA
:100D20001F93CF93DF931F92CDB7DEB76C01DC0129
:100D30005B969C915B975C968C915C97981307C02F
:100D40005096ED91FC915197808185FD31C0F6015F
:100D5000038D10E00F5F1F4F0F731127F02EF60168
:100D6000848DF81210C00FB607FCF9CFD60150964B
:100D7000ED91FC915197808185FFF1CFC601698388
:100D800089DF6981ECCF838DE80FF11DE35AFF4FB6
:100D90006083D6015B960C935B975296ED91FC9124
:100DA000539780818062808381E058968C930DC038
:100DB000D6015696ED91FC91579760835096ED9130
:100DC000FC91519780818064808381E090E00F9056
:100DD000DF91CF911F910F91FF90DF90CF900895F9
:100DE0001F920F920FB60F9211240BB60F922F93F2
:100DF0008F939F93EF93FF93E0917102F0917202B2
:100E00008081E0917702F091780282FD12C090819A
:100E100080917A028F5F8F7320917B02821751F04D
:100E2000E0917A02F0E0EF59FD4F958F80937A02BE
:100E300001C08081FF91EF919F918F912F910F9031
:100E40000BBE0F900FBE0F901F9018951F920F9220
:100E50000FB60F9211240BB60F922F933F934F931F
:100E60005F936F937F938F939F93AF93BF93EF9312
:100E7000FF9381E692E00EDFFF91EF91BF91AF917A
:100E80009F918F917F916F915F914F913F912F91A2
:100E90000F900BBE0F900FBE0F901F9018951092E1
:100EA00064021092630288EE93E0A0E0B0E08093C9
:100EB000650290936602A0936702B093680285E38F
:100EC00092E0909362028093610285EC90E09093AF
:100ED0006E0280936D0284EC90E090937002809398
:100EE0006F0280EC90E0909372028093710281EC2B
:100EF00090E0909374028093730282EC90E0909360
:100F000076028093750286EC90E09093780280934D
:100F1000770210927A0210927B0210927C02109259
:100F20007D0208951F920F920FB60F9211240BB6F7
:100F30000F922F938F939F93EF93FF93E0910E0364
:100F4000F0910F038081E0911403F091150382FD6D
:100F500012C09081809117038F5F8F7320911803C7
:100F6000821751F0E0911703F0E0E250FD4F958FAA
:100F70008093170301C08081FF91EF919F918F9122
:100F80002F910F900BBE0F900FBE0F901F901895D2
:100F90001F920F920FB60F9211240BB60F922F9340
:100FA0003F934F935F936F937F938F939F93AF93F1
:100FB000BF93EF93FF938EEF92E06CDEFF91EF9182
:100FC000BF91AF919F918F917F916F915F914F9161
:100FD0003F912F910F900BBE0F900FBE0F901F905F
:100FE0001895109201031092000388EE93E0A0E0A0
:100FF000B0E08093020390930303A0930403B093A3
:10100000050385E392E09093FF028093FE028DEC4E
:1010100090E090930B0380930A038CEC90E0909304
:101020000D0380930C0388EC90E090930F03809362
:101030000E0389EC90E090931103809310038AECE7
:1010400090E090931303809312038EEC90E09093C2
:101050001503809314031092170310921803109233
:10106000190310921A0308951F920F920FB60F9250
:1010700011240BB60F922F938F939F93EF93FF93AF
:10108000E091AB03F091AC038081E091B103F0916A
:10109000B20382FD12C090818091B4038F5F8F7381
:1010A0002091B503821751F0E091B403F0E0E556CA
:1010B000FC4F958F8093B40301C08081FF91EF9125
:1010C0009F918F912F910F900BBE0F900FBE0F909D
:1010D0001F9018951F920F920FB60F9211240BB606
:1010E0000F922F933F934F935F936F937F938F93C1
:1010F0009F93AF93BF93EF93FF938BE993E0CADD88
:10110000FF91EF91BF91AF919F918F917F916F91DF
:101110005F914F913F912F910F900BBE0F900FBE9B
:101120000F901F90189510929E0310929D0388EEC9
:1011300093E0A0E0B0E080939F039093A003A0937E
:10114000A103B093A20385E392E090939C03809364
:101150009B0385ED90E09093A8038093A70384ED13
:1011600090E09093AA038093A90380ED90E0909380
:10117000AC038093AB0381ED90E09093AE0380933A
:10118000AD0382ED90E09093B0038093AF0386EDC2
:1011900090E09093B2038093B1031092B403109245
:1011A000B5031092B6031092B70308951F920F92E1
:1011B0000FB60F9211240BB60F922F938F939F931C
:1011C000EF93FF93E0914804F09149048081E0910E
:1011D0004E04F0914F0482FD12C090818091510421
:1011E0008F5F8F7320915204821751F0E091510468
:1011F000F0E0E85CFB4F958F8093510401C0808143
:10120000FF91EF919F918F912F910F900BBE0F90B7
:101210000FBE0F901F9018951F920F920FB60F924E
:1012200011240BB60F922F933F934F935F936F93BD
:101230007F938F939F93AF93BF93EF93FF9388E335
:1012400094E028DDFF91EF91BF91AF919F918F9135
:101250007F916F915F914F913F912F910F900BBEB6
:101260000F900FBE0F901F90189510923B04109294
:101270003A0488EE93E0A0E0B0E080933C049093C1
:101280003D04A0933E04B0933F0485E392E0909325
:1012900039048093380485E391E09093450480936A
:1012A000440484E391E0909347048093460480E3F0
:1012B00091E0909349048093480481E391E09093F6
:1012C0004B0480934A0482E391E090934D04809311
:1012D0004C0486E391E090934F0480934E04109267
:1012E0005104109252041092530410925404089521
:1012F000AF92BF92CF92DF92EF92FF920F931F9324
:10130000CF93DF936C017B01C0E0D0E000E010E000
:10131000F601EC0FFD1F4AE050E06281C701D6D014
:101320005C016EE2C70168D08A0D9B1D080F191F72
:101330002196C330D10561F74AE050E0F60165819E
:10134000C701C4D0800F911FDF91CF911F910F91E2
:10135000FF90EF90DF90CF90BF90AF90089585E41D
:1013600092E09093D6048093D5041092D704109203
:10137000D8041092D9041092DA040895CF92DF9223
:10138000EF92FF920F931F93CF93DF936C017A013B
:10139000EB01E60EF71E00E010E0CE15DF0561F070
:1013A0006991D601ED91FC910190F081E02DC6018B
:1013B0001995080F191FF1CFC801DF91CF911F9127
:1013C0000F91FF90EF90DF90CF9008956115710518
:1013D00081F0DB010D900020E9F7AD01415051098A
:1013E000461B570BDC01ED91FC910280F381E02D4F
:1013F000199480E090E00895DC01ED91FC9101905A
:10140000F081E02D19948F929F92AF92BF92CF926C
:10141000DF92EF92FF920F931F93CF93DF93CDB79D
:10142000DEB7A1970FB6F894DEBF0FBECDBF7C012B
:10143000C42EE52FCB01D22E19A221E02D1510F0DC
:101440002AE0D22E8E010F5D1F4F8D2C912CA12CE6
:10145000B12C6C2D7E2FA501940161D38C2DD29ED1
:1014600080191124015011098A3014F4805D01C0E3
:10147000895CF8018083211531054105510521F072
:10148000C22EE32FCA01E5CFB801C7019FDFA196A5
:101490000FB6F894DEBF0FBECDBFDF91CF911F9185
:1014A0000F91FF90EF90DF90CF90BF90AF909F9003
:1014B0008F9008952115310541F4DC01ED91FC91E7
:1014C0000190F081E02D642F19949DCF9A01462F51
:1014D00050E060E070E0EECF8230A9F028F488237D
:1014E00049F0813051F00895843009F1E8F08530F9
:1014F00009F1089510926E00089580916F008D7F1C
:1015000080936F000895809170008D7F80937000AC
:1015100081E08093B0008091B100887F84608093E7
:10152000B1001092B30008951092710008951092C6
:1015300072000895109273000895CF93C82F809180
:101540002E028C1307C0E2E3F2E084919FEF9093A8
:101550002E0201C08FEFC0DF60E08C2FCF9138CB1F
:101560001F920F920FB60F9211240BB60F922F936A
:101570003F934F935F936F937F938F939F93AF931B
:10158000BF93EF93FF938091DE049091DF04A091CD
:10159000E004B091E104892B8A2B8B2B51F19091BF
:1015A000DB04E091DC04F091DD04808189278083F5
:1015B0008091DE049091DF04A091E004B091E104F9
:1015C000181619061A061B06BCF48091DE049091C9
:1015D000DF04A091E004B091E1040197A109B109F1
:1015E0008093DE049093DF04A093E004B093E104C1
:1015F00003C080912E02A1DFFF91EF91BF91AF91C7
:101600009F918F917F916F915F914F913F912F911A
:101610000F900BBE0F900FBE0F901F90189508955E
:101620001F920F920FB60F9211240BB60F922F93A9
:101630003F934F935F936F937F938F939F93AF935A
:10164000BF93EF93FF938BEC93EF909325018093DF
:10165000240134D0FF91EF91BF91AF919F918F9171
:101660007F916F915F914F913F912F910F900BBEA2
:101670000F900FBE0F901F9018958BEC93EF9093E7
:10168000250180932401A3E7B0E08C918E7F8C9399
:10169000E0E2F1E080818C7F8083E1E2F1E0808113
:1016A000877E808380818560808380818D7F808339
:1016B0008C9181608C93089581E008952091E204DB
:1016C00081E0820F8093E204222349F081E090E0E0
:1016D0009093E4048093E3042093E20408957894C3
:1016E0000E945101F8948091E20481508093E204B9
:1016F00008950F931F93CF93DF931F92CDB7DEB75B
:1017000081E08983B2D88BDF00912F0210913002E3
:10171000F801118210820E945602AFDF21E0F80129
:1017200080819181892B09F020E029837894789435
:101730008981882381F021E0F80180819181892BC2
:1017400009F020E029838981882311F0B5DF01C0E9
:1017500080E08983EDCF0E946202F89480E090E0FF
:101760000F90DF91CF911F910F9108955058BB2793
:10177000AA270ED033C124D130F029D120F031F482
:101780009F3F11F41EF419C10EF4E095E7FB0FC161
:10179000E92F35D180F3BA176207730784079507DD
:1017A00018F071F49EF54DC10EF4E0950B2EBA2F92
:1017B000A02D0B01B90190010C01CA01A001112457
:1017C000FF27591B99F0593F50F4503E68F11A1603
:1017D000F040A22F232F342F4427585FF3CF469594
:1017E00037952795A795F0405395C9F77EF41F16B6
:1017F000BA0B620B730B840BBAF09150A1F0FF0F80
:10180000BB1F661F771F881FC2F70EC0BA0F621F6B
:10181000731F841F48F4879577956795B795F7955B
:101820009E3F08F0B3CF9395880F08F09927EE0FED
:1018300097958795089597D008F481E008950CD086
:10184000CDC0C5D040F0BCD030F021F45F3F19F0DE
:10185000AEC05111F7C0B1C0D2D098F39923C9F3EB
:101860005523B1F3951B550BBB27AA2762177307A6
:10187000840738F09F5F5F4F220F331F441FAA1F5A
:10188000A9F333D00E2E3AF0E0E830D0915050401A
:10189000E695001CCAF729D0FE2F27D0660F771FC8
:1018A000881FBB1F261737074807AB07B0E809F0AA
:1018B000BB0B802DBF01FF2793585F4F2AF09E3F3F
:1018C000510568F074C0BEC05F3FECF3983EDCF396
:1018D000869577956795B795F7959F5FC9F7880FB8
:1018E000911D9695879597F90895E1E0660F771F0A
:1018F000881FBB1F621773078407BA0720F0621B9B
:10190000730B840BBA0BEE1F88F7E09508957FD018
:1019100088F09F5790F0B92F9927B751A0F0D1F0D8
:10192000660F771F881F991F1AF0BA95C9F712C062
:10193000B13081F086D0B1E0089583C0672F782F51
:101940008827B85F39F0B93FCCF3869577956795CE
:10195000B395D9F73EF490958095709561957F4F3A
:101960008F4F9F4F0895990F0008550FAA0BE0E87D
:10197000FEEF16161706E807F907C0F01216130651
:10198000E407F50798F0621B730B840B950B39F491
:101990000A2661F0232B242B252B21F408950A26F7
:1019A00009F4A140A6958FEF811D811D089597F937
:1019B0009F6780E870E060E008959FEF80EC0895F5
:1019C00000240A941616170618060906089500241E
:1019D0000A9412161306140605060895092E039498
:1019E000000C11F4882352F0BB0F40F4BF2B11F40C
:1019F00060FF04C06F5F7F4F8F4F9F4F089557FD6B
:101A00009058440F551F59F05F3F71F04795880F6C
:101A100097FB991F61F09F3F79F087950895121603
:101A200013061406551FF2CF4695F1DF08C01616AF
:101A300017061806991FF1CF869571056105089460
:101A40000895E894BB2766277727CB0197F9089577
:101A50008ADF08F48FEF08950BD0C0CFB1DF28F0F4
:101A6000B6DF18F0952309F0A2CFA7CF1124EACF53
:101A7000C6DFA0F3959FD1F3950F50E0551F629FED
:101A8000F001729FBB27F00DB11D639FAA27F00DD7
:101A9000B11DAA1F649F6627B00DA11D661F829FFE
:101AA0002227B00DA11D621F739FB00DA11D621FE3
:101AB000839FA00D611D221F749F3327A00D611D00
:101AC000231F849F600D211D822F762F6A2F1124E2
:101AD0009F5750408AF0E1F088234AF0EE0FFF1F35
:101AE000BB1F661F771F881F91505040A9F79E3F6C
:101AF000510570F05CCFA6CF5F3FECF3983EDCF36E
:101B0000869577956795B795F795E7959F5FC1F7A8
:101B1000FE2B880F911D9695879597F90895A1E260
:101B20001A2EAA1BBB1BFD010DC0AA1FBB1FEE1F57
:101B3000FF1FA217B307E407F50720F0A21BB30BA2
:101B4000E40BF50B661F771F881F991F1A9469F71E
:101B500060957095809590959B01AC01BD01CF017A
:101B60000895EE0FFF1F0590F491E02D1994079052
:0A1B7000F691E02D1994F894FFCFD0
:101B7A000000E70480000100000000004843000064
:101B8A00000000007F43000000000B0000000A0074
:101B9A000000000048C200004843000048C3FFE5B7
:101BAA0004000000008C06BE091D06360628066BD6
:081BBA0006000000007809009C
:00000001FF
